{
  "_format": "hh3-artifact-1",
  "contractName": "MorphpAdapter",
  "sourceName": "contracts/adapters/MorphoAdapter.sol",
  "abi": [
    {
      "inputs": [
        {
          "internalType": "address",
          "name": "_core",
          "type": "address"
        }
      ],
      "stateMutability": "nonpayable",
      "type": "constructor"
    },
    {
      "inputs": [],
      "name": "AssetMismatch",
      "type": "error"
    },
    {
      "inputs": [],
      "name": "Unauthorized",
      "type": "error"
    },
    {
      "inputs": [
        {
          "internalType": "address",
          "name": "asset",
          "type": "address"
        },
        {
          "internalType": "uint256",
          "name": "amount",
          "type": "uint256"
        },
        {
          "internalType": "bytes",
          "name": "allocationData",
          "type": "bytes"
        },
        {
          "internalType": "address",
          "name": "liquidityMigrator",
          "type": "address"
        }
      ],
      "name": "allocateLiquidity",
      "outputs": [],
      "stateMutability": "nonpayable",
      "type": "function"
    },
    {
      "inputs": [],
      "name": "core",
      "outputs": [
        {
          "internalType": "address",
          "name": "",
          "type": "address"
        }
      ],
      "stateMutability": "view",
      "type": "function"
    },
    {
      "inputs": [
        {
          "internalType": "address",
          "name": "asset",
          "type": "address"
        },
        {
          "internalType": "uint256",
          "name": "amount",
          "type": "uint256"
        },
        {
          "internalType": "bytes",
          "name": "protocolData",
          "type": "bytes"
        },
        {
          "internalType": "address",
          "name": "destinationAdapter",
          "type": "address"
        }
      ],
      "name": "extractLiquidity",
      "outputs": [],
      "stateMutability": "nonpayable",
      "type": "function"
    }
  ],
  "bytecode": "0x60a060405234801561000f575f5ffd5b50604051610b03380380610b03833981810160405281019061003191906100c9565b8073ffffffffffffffffffffffffffffffffffffffff1660808173ffffffffffffffffffffffffffffffffffffffff1681525050506100f4565b5f5ffd5b5f73ffffffffffffffffffffffffffffffffffffffff82169050919050565b5f6100988261006f565b9050919050565b6100a88161008e565b81146100b2575f5ffd5b50565b5f815190506100c38161009f565b92915050565b5f602082840312156100de576100dd61006b565b5b5f6100eb848285016100b5565b91505092915050565b6080516109ea6101195f395f8181609b0152818161022d01526103c201526109ea5ff3fe608060405234801561000f575f5ffd5b506004361061003f575f3560e01c806350ca245014610043578063b118194d1461005f578063f2f4eb261461007b575b5f5ffd5b61005d600480360381019061005891906105be565b610099565b005b610079600480360381019061007491906105be565b61022b565b005b6100836103c0565b604051610090919061064d565b60405180910390f35b7f000000000000000000000000000000000000000000000000000000000000000073ffffffffffffffffffffffffffffffffffffffff163373ffffffffffffffffffffffffffffffffffffffff161461011e576040517f82b4290000000000000000000000000000000000000000000000000000000000815260040160405180910390fd5b5f5f838060200190518101906101349190610756565b915091508573ffffffffffffffffffffffffffffffffffffffff16826020015173ffffffffffffffffffffffffffffffffffffffff16146101a1576040517f83c1010a00000000000000000000000000000000000000000000000000000000815260040160405180910390fd5b8073ffffffffffffffffffffffffffffffffffffffff16635c2bea4983875f33886040518663ffffffff1660e01b81526004016101e2959493929190610869565b60408051808303815f875af11580156101fd573d5f5f3e3d5ffd5b505050506040513d601f19601f8201168201806040525081019061022191906108bc565b5050505050505050565b7f000000000000000000000000000000000000000000000000000000000000000073ffffffffffffffffffffffffffffffffffffffff163373ffffffffffffffffffffffffffffffffffffffff16146102b0576040517f82b4290000000000000000000000000000000000000000000000000000000000815260040160405180910390fd5b5f5f838060200190518101906102c69190610756565b915091508573ffffffffffffffffffffffffffffffffffffffff16826020015173ffffffffffffffffffffffffffffffffffffffff1614610333576040517f83c1010a00000000000000000000000000000000000000000000000000000000815260040160405180910390fd5b60608173ffffffffffffffffffffffffffffffffffffffff1663a99aad8984885f88866040518663ffffffff1660e01b815260040161037695949392919061095a565b60408051808303815f875af1158015610391573d5f5f3e3d5ffd5b505050506040513d601f19601f820116820180604052508101906103b591906108bc565b505050505050505050565b7f000000000000000000000000000000000000000000000000000000000000000081565b5f604051905090565b5f5ffd5b5f5ffd5b5f73ffffffffffffffffffffffffffffffffffffffff82169050919050565b5f61041e826103f5565b9050919050565b61042e81610414565b8114610438575f5ffd5b50565b5f8135905061044981610425565b92915050565b5f819050919050565b6104618161044f565b811461046b575f5ffd5b50565b5f8135905061047c81610458565b92915050565b5f5ffd5b5f5ffd5b5f601f19601f8301169050919050565b7f4e487b71000000000000000000000000000000000000000000000000000000005f52604160045260245ffd5b6104d08261048a565b810181811067ffffffffffffffff821117156104ef576104ee61049a565b5b80604052505050565b5f6105016103e4565b905061050d82826104c7565b919050565b5f67ffffffffffffffff82111561052c5761052b61049a565b5b6105358261048a565b9050602081019050919050565b828183375f83830152505050565b5f61056261055d84610512565b6104f8565b90508281526020810184848401111561057e5761057d610486565b5b610589848285610542565b509392505050565b5f82601f8301126105a5576105a4610482565b5b81356105b5848260208601610550565b91505092915050565b5f5f5f5f608085870312156105d6576105d56103ed565b5b5f6105e38782880161043b565b94505060206105f48782880161046e565b935050604085013567ffffffffffffffff811115610615576106146103f1565b5b61062187828801610591565b92505060606106328782880161043b565b91505092959194509250565b61064781610414565b82525050565b5f6020820190506106605f83018461063e565b92915050565b5f5ffd5b5f8151905061067881610425565b92915050565b5f8151905061068c81610458565b92915050565b5f60a082840312156106a7576106a6610666565b5b6106b160a06104f8565b90505f6106c08482850161066a565b5f8301525060206106d38482850161066a565b60208301525060406106e78482850161066a565b60408301525060606106fb8482850161066a565b606083015250608061070f8482850161067e565b60808301525092915050565b5f610725826103f5565b9050919050565b6107358161071b565b811461073f575f5ffd5b50565b5f815190506107508161072c565b92915050565b5f5f60c0838503121561076c5761076b6103ed565b5b5f61077985828601610692565b92505060a061078a85828601610742565b9150509250929050565b61079d81610414565b82525050565b6107ac8161044f565b82525050565b60a082015f8201516107c65f850182610794565b5060208201516107d96020850182610794565b5060408201516107ec6040850182610794565b5060608201516107ff6060850182610794565b50608082015161081260808501826107a3565b50505050565b6108218161044f565b82525050565b5f819050919050565b5f819050919050565b5f61085361084e61084984610827565b610830565b61044f565b9050919050565b61086381610839565b82525050565b5f6101208201905061087d5f8301886107b2565b61088a60a0830187610818565b61089760c083018661085a565b6108a460e083018561063e565b6108b261010083018461063e565b9695505050505050565b5f5f604083850312156108d2576108d16103ed565b5b5f6108df8582860161067e565b92505060206108f08582860161067e565b9150509250929050565b5f81519050919050565b5f82825260208201905092915050565b8281835e5f83830152505050565b5f61092c826108fa565b6109368185610904565b9350610946818560208601610914565b61094f8161048a565b840191505092915050565b5f6101208201905061096e5f8301886107b2565b61097b60a0830187610818565b61098860c083018661085a565b61099560e083018561063e565b8181036101008301526109a88184610922565b9050969550505050505056fea26469706673582212208dc3eb29ce46dad1d9d3061a4a5fb817c5a2d167a64ca56c31eb466f929a46ca64736f6c634300081c0033",
  "linkReferences": {},
  "deployedLinkReferences": {},
  "immutableReferences": {
    "4135": [
      {
        "length": 32,
        "start": 155
      },
      {
        "length": 32,
        "start": 557
      },
      {
        "length": 32,
        "start": 962
      }
    ]
  },
  "inputSourceName": "project/contracts/adapters/MorphoAdapter.sol",
  "buildInfoId": "solc-0_8_28-1e970f38cf8460bd356cbaf2dc22f6087274fdef"
}