{
  "_format": "hh3-artifact-1",
  "contractName": "BleethMeCore",
  "sourceName": "contracts/BleethMeCore.sol",
  "abi": [
    {
      "inputs": [
        {
          "internalType": "address",
          "name": "initialOwner",
          "type": "address"
        },
        {
          "internalType": "address",
          "name": "_entropy",
          "type": "address"
        },
        {
          "internalType": "address",
          "name": "_pyth",
          "type": "address"
        }
      ],
      "stateMutability": "nonpayable",
      "type": "constructor"
    },
    {
      "inputs": [],
      "name": "BetAlreadyPlaced",
      "type": "error"
    },
    {
      "inputs": [],
      "name": "BettingPeriodClosed",
      "type": "error"
    },
    {
      "inputs": [],
      "name": "BettingPeriodNotFinalized",
      "type": "error"
    },
    {
      "inputs": [
        {
          "internalType": "bytes32",
          "name": "key",
          "type": "bytes32"
        }
      ],
      "name": "EnumerableMapNonexistentKey",
      "type": "error"
    },
    {
      "inputs": [],
      "name": "InsufficientBetAmount",
      "type": "error"
    },
    {
      "inputs": [
        {
          "internalType": "address",
          "name": "owner",
          "type": "address"
        }
      ],
      "name": "OwnableInvalidOwner",
      "type": "error"
    },
    {
      "inputs": [
        {
          "internalType": "address",
          "name": "account",
          "type": "address"
        }
      ],
      "name": "OwnableUnauthorizedAccount",
      "type": "error"
    },
    {
      "inputs": [],
      "name": "RewardTokenNotWhitelisted",
      "type": "error"
    },
    {
      "anonymous": false,
      "inputs": [
        {
          "indexed": true,
          "internalType": "bytes32",
          "name": "poolId",
          "type": "bytes32"
        },
        {
          "indexed": true,
          "internalType": "address",
          "name": "user",
          "type": "address"
        }
      ],
      "name": "BetPlaced",
      "type": "event"
    },
    {
      "anonymous": false,
      "inputs": [
        {
          "indexed": true,
          "internalType": "address",
          "name": "previousOwner",
          "type": "address"
        },
        {
          "indexed": true,
          "internalType": "address",
          "name": "newOwner",
          "type": "address"
        }
      ],
      "name": "OwnershipTransferred",
      "type": "event"
    },
    {
      "anonymous": false,
      "inputs": [
        {
          "indexed": true,
          "internalType": "address",
          "name": "token",
          "type": "address"
        },
        {
          "indexed": true,
          "internalType": "bytes32",
          "name": "priceFeedId",
          "type": "bytes32"
        }
      ],
      "name": "RewardTokenWhitelisted",
      "type": "event"
    },
    {
      "anonymous": false,
      "inputs": [
        {
          "indexed": true,
          "internalType": "bytes32",
          "name": "poolId",
          "type": "bytes32"
        },
        {
          "indexed": true,
          "internalType": "address",
          "name": "attacker",
          "type": "address"
        },
        {
          "indexed": true,
          "internalType": "address",
          "name": "victim",
          "type": "address"
        }
      ],
      "name": "VAPoolCreated",
      "type": "event"
    },
    {
      "inputs": [
        {
          "internalType": "uint64",
          "name": "sequence",
          "type": "uint64"
        },
        {
          "internalType": "address",
          "name": "provider",
          "type": "address"
        },
        {
          "internalType": "bytes32",
          "name": "randomNumber",
          "type": "bytes32"
        }
      ],
      "name": "_entropyCallback",
      "outputs": [],
      "stateMutability": "nonpayable",
      "type": "function"
    },
    {
      "inputs": [
        {
          "internalType": "uint256",
          "name": "vaPoolId",
          "type": "uint256"
        },
        {
          "internalType": "address",
          "name": "tokenToMigrate",
          "type": "address"
        },
        {
          "internalType": "uint256",
          "name": "amountToAllocate",
          "type": "uint256"
        },
        {
          "internalType": "bytes",
          "name": "migrationData",
          "type": "bytes"
        }
      ],
      "name": "allocateLiquidityPosition",
      "outputs": [],
      "stateMutability": "nonpayable",
      "type": "function"
    },
    {
      "inputs": [
        {
          "internalType": "uint256",
          "name": "vaPoolId",
          "type": "uint256"
        }
      ],
      "name": "claimRewards",
      "outputs": [],
      "stateMutability": "nonpayable",
      "type": "function"
    },
    {
      "inputs": [
        {
          "internalType": "uint256",
          "name": "vaPoolId",
          "type": "uint256"
        }
      ],
      "name": "computeTotalBets",
      "outputs": [
        {
          "internalType": "uint256",
          "name": "totalFor",
          "type": "uint256"
        },
        {
          "internalType": "uint256",
          "name": "totalAgainst",
          "type": "uint256"
        }
      ],
      "stateMutability": "view",
      "type": "function"
    },
    {
      "inputs": [
        {
          "internalType": "contract IBaseAdapter",
          "name": "attacker",
          "type": "address"
        },
        {
          "internalType": "contract IBaseAdapter",
          "name": "victim",
          "type": "address"
        },
        {
          "internalType": "contract IERC20[]",
          "name": "rewardTokens",
          "type": "address[]"
        },
        {
          "internalType": "uint256",
          "name": "penalizationCoefficient",
          "type": "uint256"
        },
        {
          "internalType": "uint256",
          "name": "auctionDuration",
          "type": "uint256"
        },
        {
          "internalType": "uint256",
          "name": "liquidityMigrationDelay",
          "type": "uint256"
        },
        {
          "internalType": "uint256",
          "name": "lockDuration",
          "type": "uint256"
        },
        {
          "internalType": "uint256",
          "name": "snapshotLookupTimestamp",
          "type": "uint256"
        },
        {
          "internalType": "contract IERC20",
          "name": "initialBetToken",
          "type": "address"
        },
        {
          "internalType": "uint256",
          "name": "initialBetAmount",
          "type": "uint256"
        }
      ],
      "name": "createVaPool",
      "outputs": [
        {
          "internalType": "uint256",
          "name": "vaPoolId",
          "type": "uint256"
        }
      ],
      "stateMutability": "nonpayable",
      "type": "function"
    },
    {
      "inputs": [
        {
          "internalType": "uint256",
          "name": "vaPoolId",
          "type": "uint256"
        },
        {
          "internalType": "address",
          "name": "tokenToMigrate",
          "type": "address"
        },
        {
          "internalType": "uint256",
          "name": "amountToMigrate",
          "type": "uint256"
        },
        {
          "internalType": "bytes",
          "name": "extractionData",
          "type": "bytes"
        }
      ],
      "name": "deconstructLiquidityPosition",
      "outputs": [],
      "stateMutability": "nonpayable",
      "type": "function"
    },
    {
      "inputs": [],
      "name": "entropy",
      "outputs": [
        {
          "internalType": "contract IEntropyV2",
          "name": "",
          "type": "address"
        }
      ],
      "stateMutability": "view",
      "type": "function"
    },
    {
      "inputs": [
        {
          "internalType": "uint256",
          "name": "vaPoolId",
          "type": "uint256"
        },
        {
          "internalType": "bytes[]",
          "name": "priceUpdate",
          "type": "bytes[]"
        }
      ],
      "name": "finalizeBetting",
      "outputs": [],
      "stateMutability": "payable",
      "type": "function"
    },
    {
      "inputs": [
        {
          "internalType": "uint256",
          "name": "vaPoolId",
          "type": "uint256"
        }
      ],
      "name": "finalizeBettingPeriod",
      "outputs": [],
      "stateMutability": "nonpayable",
      "type": "function"
    },
    {
      "inputs": [
        {
          "internalType": "uint256",
          "name": "vaPoolId",
          "type": "uint256"
        },
        {
          "internalType": "address",
          "name": "better",
          "type": "address"
        }
      ],
      "name": "getBet",
      "outputs": [
        {
          "components": [
            {
              "internalType": "enum IBleethMeCore.BetSide",
              "name": "side",
              "type": "uint8"
            },
            {
              "internalType": "contract IERC20",
              "name": "token",
              "type": "address"
            },
            {
              "internalType": "uint256",
              "name": "amount",
              "type": "uint256"
            },
            {
              "internalType": "uint256",
              "name": "timestamp",
              "type": "uint256"
            }
          ],
          "internalType": "struct IBleethMeCore.Bet",
          "name": "",
          "type": "tuple"
        }
      ],
      "stateMutability": "view",
      "type": "function"
    },
    {
      "inputs": [
        {
          "components": [
            {
              "internalType": "int64",
              "name": "price",
              "type": "int64"
            },
            {
              "internalType": "uint64",
              "name": "conf",
              "type": "uint64"
            },
            {
              "internalType": "int32",
              "name": "expo",
              "type": "int32"
            },
            {
              "internalType": "uint256",
              "name": "publishTime",
              "type": "uint256"
            }
          ],
          "internalType": "struct PythStructs.Price",
          "name": "pythPrice",
          "type": "tuple"
        }
      ],
      "name": "getPythPrice1e18",
      "outputs": [
        {
          "internalType": "uint256",
          "name": "",
          "type": "uint256"
        }
      ],
      "stateMutability": "pure",
      "type": "function"
    },
    {
      "inputs": [
        {
          "internalType": "contract IERC20",
          "name": "token",
          "type": "address"
        }
      ],
      "name": "getWhitelistedRewardTokenPriceFeedId",
      "outputs": [
        {
          "internalType": "bytes32",
          "name": "",
          "type": "bytes32"
        }
      ],
      "stateMutability": "view",
      "type": "function"
    },
    {
      "inputs": [],
      "name": "getWhitelistedRewardTokens",
      "outputs": [
        {
          "internalType": "address[]",
          "name": "",
          "type": "address[]"
        }
      ],
      "stateMutability": "view",
      "type": "function"
    },
    {
      "inputs": [],
      "name": "owner",
      "outputs": [
        {
          "internalType": "address",
          "name": "",
          "type": "address"
        }
      ],
      "stateMutability": "view",
      "type": "function"
    },
    {
      "inputs": [
        {
          "internalType": "uint256",
          "name": "vaPoolId",
          "type": "uint256"
        },
        {
          "internalType": "enum IBleethMeCore.BetSide",
          "name": "side",
          "type": "uint8"
        },
        {
          "internalType": "contract IERC20",
          "name": "token",
          "type": "address"
        },
        {
          "internalType": "uint256",
          "name": "amount",
          "type": "uint256"
        }
      ],
      "name": "placeBet",
      "outputs": [],
      "stateMutability": "nonpayable",
      "type": "function"
    },
    {
      "inputs": [],
      "name": "pyth",
      "outputs": [
        {
          "internalType": "contract IPyth",
          "name": "",
          "type": "address"
        }
      ],
      "stateMutability": "view",
      "type": "function"
    },
    {
      "inputs": [
        {
          "internalType": "uint64",
          "name": "sequenceNumber",
          "type": "uint64"
        }
      ],
      "name": "randomnessMapping",
      "outputs": [
        {
          "internalType": "uint256",
          "name": "vaPoolId",
          "type": "uint256"
        }
      ],
      "stateMutability": "view",
      "type": "function"
    },
    {
      "inputs": [],
      "name": "renounceOwnership",
      "outputs": [],
      "stateMutability": "nonpayable",
      "type": "function"
    },
    {
      "inputs": [
        {
          "internalType": "contract IERC20",
          "name": "token",
          "type": "address"
        },
        {
          "internalType": "bytes32",
          "name": "priceFeedId",
          "type": "bytes32"
        }
      ],
      "name": "setWhitelistRewardToken",
      "outputs": [],
      "stateMutability": "nonpayable",
      "type": "function"
    },
    {
      "inputs": [
        {
          "internalType": "address",
          "name": "newOwner",
          "type": "address"
        }
      ],
      "name": "transferOwnership",
      "outputs": [],
      "stateMutability": "nonpayable",
      "type": "function"
    },
    {
      "inputs": [
        {
          "internalType": "uint256",
          "name": "vaPoolId",
          "type": "uint256"
        },
        {
          "internalType": "bytes32",
          "name": "root",
          "type": "bytes32"
        }
      ],
      "name": "updatePositionMerkleRoot",
      "outputs": [],
      "stateMutability": "nonpayable",
      "type": "function"
    },
    {
      "inputs": [],
      "name": "vaPoolCount",
      "outputs": [
        {
          "internalType": "uint256",
          "name": "",
          "type": "uint256"
        }
      ],
      "stateMutability": "view",
      "type": "function"
    },
    {
      "inputs": [
        {
          "internalType": "uint256",
          "name": "",
          "type": "uint256"
        }
      ],
      "name": "vaPools",
      "outputs": [
        {
          "internalType": "contract IBaseAdapter",
          "name": "attacker",
          "type": "address"
        },
        {
          "internalType": "contract IBaseAdapter",
          "name": "victim",
          "type": "address"
        },
        {
          "internalType": "uint256",
          "name": "penalizationCoefficient",
          "type": "uint256"
        },
        {
          "internalType": "uint256",
          "name": "auctionEndTimestamp",
          "type": "uint256"
        },
        {
          "internalType": "uint256",
          "name": "liquidityMigrationTimestamp",
          "type": "uint256"
        },
        {
          "internalType": "uint256",
          "name": "lockTimestamp",
          "type": "uint256"
        },
        {
          "internalType": "uint256",
          "name": "snapshotLookupTimestamp",
          "type": "uint256"
        },
        {
          "internalType": "enum IBleethMeCore.VAPoolState",
          "name": "state",
          "type": "uint8"
        }
      ],
      "stateMutability": "view",
      "type": "function"
    },
    {
      "inputs": [
        {
          "internalType": "uint256",
          "name": "",
          "type": "uint256"
        }
      ],
      "name": "vaStreams",
      "outputs": [
        {
          "internalType": "bytes32",
          "name": "balancesMerkleRoot",
          "type": "bytes32"
        },
        {
          "internalType": "contract IBaseAdapter",
          "name": "liquidityOrigin",
          "type": "address"
        },
        {
          "internalType": "contract IBaseAdapter",
          "name": "liquidityDestination",
          "type": "address"
        },
        {
          "internalType": "uint256",
          "name": "totalRewards",
          "type": "uint256"
        },
        {
          "internalType": "uint256",
          "name": "totalLiquidityMigrated",
          "type": "uint256"
        }
      ],
      "stateMutability": "view",
      "type": "function"
    },
    {
      "inputs": [
        {
          "internalType": "uint256",
          "name": "vaPoolId",
          "type": "uint256"
        }
      ],
      "name": "withdrawFailedBet",
      "outputs": [],
      "stateMutability": "nonpayable",
      "type": "function"
    }
  ],
  "bytecode": "0x608060405234801561000f575f5ffd5b50604051614e05380380614e0583398181016040528101906100319190610259565b825f73ffffffffffffffffffffffffffffffffffffffff168173ffffffffffffffffffffffffffffffffffffffff16036100a2575f6040517f1e4fbdf700000000000000000000000000000000000000000000000000000000815260040161009991906102b8565b60405180910390fd5b6100b18161013a60201b60201c565b508160085f6101000a81548173ffffffffffffffffffffffffffffffffffffffff021916908373ffffffffffffffffffffffffffffffffffffffff1602179055508060095f6101000a81548173ffffffffffffffffffffffffffffffffffffffff021916908373ffffffffffffffffffffffffffffffffffffffff1602179055505050506102d1565b5f5f5f9054906101000a900473ffffffffffffffffffffffffffffffffffffffff169050815f5f6101000a81548173ffffffffffffffffffffffffffffffffffffffff021916908373ffffffffffffffffffffffffffffffffffffffff1602179055508173ffffffffffffffffffffffffffffffffffffffff168173ffffffffffffffffffffffffffffffffffffffff167f8be0079c531659141344cd1fd0a4f28419497f9722a3daafe3b4186f6b6457e060405160405180910390a35050565b5f5ffd5b5f73ffffffffffffffffffffffffffffffffffffffff82169050919050565b5f610228826101ff565b9050919050565b6102388161021e565b8114610242575f5ffd5b50565b5f815190506102538161022f565b92915050565b5f5f5f606084860312156102705761026f6101fb565b5b5f61027d86828701610245565b935050602061028e86828701610245565b925050604061029f86828701610245565b9150509250925092565b6102b28161021e565b82525050565b5f6020820190506102cb5f8301846102a9565b92915050565b614b27806102de5f395ff3fe608060405260043610610165575f3560e01c8063715018a6116100d0578063d8f6749511610089578063eba0f21811610063578063eba0f21814610532578063f2fde38b1461056f578063f98d06f014610597578063faeb655c146105c157610165565b8063d8f6749514610490578063e02441c4146104ba578063e0950ddf146104f657610165565b8063715018a6146103a25780638da5cb5b146103b8578063a2e36c40146103e2578063adf62bac1461040a578063b6bd2caf14610434578063caf229751461045057610165565b80634f63879a116101225780634f63879a146102975780634fdb56c7146102da57806352a5f1f81461030257806358ec6a691461032a5780636c1c3cdc146103525780636d986db01461037a57610165565b80630962ef7914610169578063202d293f146101915780632bc6071a146101cd5780633bf466a4146101f557806347ce07cc146102315780634a02a1a91461025b575b5f5ffd5b348015610174575f5ffd5b5061018f600480360381019061018a9190613384565b6105e9565b005b34801561019c575f5ffd5b506101b760048036038101906101b291906134b6565b610b10565b6040516101c491906135be565b60405180910390f35b3480156101d8575f5ffd5b506101f360048036038101906101ee9190613384565b610f44565b005b348015610200575f5ffd5b5061021b600480360381019061021691906135d7565b611009565b604051610228919061361a565b60405180910390f35b34801561023c575f5ffd5b50610245611025565b604051610252919061368e565b60405180910390f35b348015610266575f5ffd5b50610281600480360381019061027c91906136e4565b61104a565b60405161028e91906135be565b60405180910390f35b3480156102a2575f5ffd5b506102bd60048036038101906102b89190613384565b61105f565b6040516102d19897969594939291906137a2565b60405180910390f35b3480156102e5575f5ffd5b5061030060048036038101906102fb9190613848565b6110ed565b005b34801561030d575f5ffd5b50610328600480360381019061032391906138b0565b61114d565b005b348015610335575f5ffd5b50610350600480360381019061034b9190613900565b611245565b005b34801561035d575f5ffd5b5061037860048036038101906103739190613384565b6112ac565b005b348015610385575f5ffd5b506103a0600480360381019061039b9190613961565b611684565b005b3480156103ad575f5ffd5b506103b6611696565b005b3480156103c3575f5ffd5b506103cc6116a9565b6040516103d991906139d4565b60405180910390f35b3480156103ed575f5ffd5b5061040860048036038101906104039190613b25565b6116d0565b005b348015610415575f5ffd5b5061041e6118cb565b60405161042b91906135be565b60405180910390f35b61044e60048036038101906104499190613bfa565b6118d1565b005b34801561045b575f5ffd5b5061047660048036038101906104719190613384565b611d04565b604051610487959493929190613c57565b60405180910390f35b34801561049b575f5ffd5b506104a4611d74565b6040516104b19190613d5f565b60405180910390f35b3480156104c5575f5ffd5b506104e060048036038101906104db9190613e64565b611d85565b6040516104ed91906135be565b60405180910390f35b348015610501575f5ffd5b5061051c60048036038101906105179190613e8f565b611e3c565b6040516105299190613f95565b60405180910390f35b34801561053d575f5ffd5b5061055860048036038101906105539190613384565b611f48565b604051610566929190613fae565b60405180910390f35b34801561057a575f5ffd5b5061059560048036038101906105909190613fd5565b611f4f565b005b3480156105a2575f5ffd5b506105ab611fd3565b6040516105b89190614020565b60405180910390f35b3480156105cc575f5ffd5b506105e760048036038101906105e29190613b25565b611ff8565b005b6004808111156105fc576105fb61372f565b5b60015f8381526020019081526020015f20600c015f9054906101000a900460ff16600481111561062f5761062e61372f565b5b14610638575f5ffd5b5f610641611d74565b90505f815190505f60025f8581526020019081526020015f206004015490505f5f90505b82811015610ab25760015f8681526020019081526020015f206002015f85838151811061069557610694614039565b5b602002602001015173ffffffffffffffffffffffffffffffffffffffff1673ffffffffffffffffffffffffffffffffffffffff1681526020019081526020015f205f9054906101000a900460ff1615610aa5575f60015f8781526020019081526020015f206001015f9054906101000a900473ffffffffffffffffffffffffffffffffffffffff1673ffffffffffffffffffffffffffffffffffffffff1660025f8881526020019081526020015f206001015f9054906101000a900473ffffffffffffffffffffffffffffffffffffffff1673ffffffffffffffffffffffffffffffffffffffff16036108935761271060015f8881526020019081526020015f206003015460015f8981526020019081526020015f20600a015f8886815181106107c2576107c1614039565b5b602002602001015173ffffffffffffffffffffffffffffffffffffffff1673ffffffffffffffffffffffffffffffffffffffff1681526020019081526020015f205461080e9190614093565b6108189190614101565b60015f8881526020019081526020015f206009015f8785815181106108405761083f614039565b5b602002602001015173ffffffffffffffffffffffffffffffffffffffff1673ffffffffffffffffffffffffffffffffffffffff1681526020019081526020015f205461088c9190614131565b90506109a0565b61271060015f8881526020019081526020015f206003015460015f8981526020019081526020015f206009015f8886815181106108d3576108d2614039565b5b602002602001015173ffffffffffffffffffffffffffffffffffffffff1673ffffffffffffffffffffffffffffffffffffffff1681526020019081526020015f205461091f9190614093565b6109299190614101565b60015f8881526020019081526020015f20600a015f87858151811061095157610950614039565b5b602002602001015173ffffffffffffffffffffffffffffffffffffffff1673ffffffffffffffffffffffffffffffffffffffff1681526020019081526020015f205461099d9190614131565b90505b5f838260025f8a81526020019081526020015f206005015f3373ffffffffffffffffffffffffffffffffffffffff1673ffffffffffffffffffffffffffffffffffffffff1681526020019081526020015f2060010154610a009190614093565b610a0a9190614101565b9050858381518110610a1f57610a1e614039565b5b602002602001015173ffffffffffffffffffffffffffffffffffffffff1663a9059cbb33836040518363ffffffff1660e01b8152600401610a61929190614164565b6020604051808303815f875af1158015610a7d573d5f5f3e3d5ffd5b505050506040513d601f19601f82011682018060405250810190610aa191906141c0565b5050505b8080600101915050610665565b505f60025f8681526020019081526020015f206005015f3373ffffffffffffffffffffffffffffffffffffffff1673ffffffffffffffffffffffffffffffffffffffff1681526020019081526020015f206001018190555050505050565b5f612710881115610b56576040517f08c379a0000000000000000000000000000000000000000000000000000000008152600401610b4d90614245565b60405180910390fd5b8b60015f60075f8154610b6890614263565b91905081905581526020019081526020015f205f015f6101000a81548173ffffffffffffffffffffffffffffffffffffffff021916908373ffffffffffffffffffffffffffffffffffffffff1602179055508a60015f60075481526020019081526020015f206001015f6101000a81548173ffffffffffffffffffffffffffffffffffffffff021916908373ffffffffffffffffffffffffffffffffffffffff1602179055508760015f60075481526020019081526020015f20600301819055508642610c359190614131565b60015f60075481526020019081526020015f2060040181905550858742610c5c9190614131565b610c669190614131565b60015f60075481526020019081526020015f206005018190555084868842610c8e9190614131565b610c989190614131565b610ca29190614131565b60015f60075481526020019081526020015f20600601819055508360015f60075481526020019081526020015f20600701819055506001805f60075481526020019081526020015f20600c015f6101000a81548160ff02191690836004811115610d0f57610d0e61372f565b5b02179055505f8a8a905090505f5f90505b81811015610e39575f5f1b610d668d8d84818110610d4157610d40614039565b5b9050602002016020810190610d5691906135d7565b600361215790919063ffffffff16565b03610d9d576040517f13bf15d300000000000000000000000000000000000000000000000000000000815260040160405180910390fd5b6001805f60075481526020019081526020015f206002015f8e8e85818110610dc857610dc7614039565b5b9050602002016020810190610ddd91906135d7565b73ffffffffffffffffffffffffffffffffffffffff1673ffffffffffffffffffffffffffffffffffffffff1681526020019081526020015f205f6101000a81548160ff0219169083151502179055508080600101915050610d20565b505f831015610e74576040517f06f075a400000000000000000000000000000000000000000000000000000000815260040160405180910390fd5b5f5f1b610e8b85600361215790919063ffffffff16565b03610ec2576040517f13bf15d300000000000000000000000000000000000000000000000000000000815260040160405180910390fd5b610ed06007545f8686612184565b60075491508b73ffffffffffffffffffffffffffffffffffffffff168d73ffffffffffffffffffffffffffffffffffffffff166007545f1b7ff74d89d0a53b6902cca5170f8dfd91e41f0ebdbb768b2749d3b17a1ed1372f0260405160405180910390a4509b9a5050505050505050505050565b610f4c6126a1565b60016004811115610f6057610f5f61372f565b5b60015f8381526020019081526020015f20600c015f9054906101000a900460ff166004811115610f9357610f9261372f565b5b14610fca576040517f3cae8da900000000000000000000000000000000000000000000000000000000815260040160405180910390fd5b600260015f8381526020019081526020015f20600c015f6101000a81548160ff021916908360048111156110015761100061372f565b5b021790555050565b5f61101e82600361215790919063ffffffff16565b9050919050565b60085f9054906101000a900473ffffffffffffffffffffffffffffffffffffffff1681565b6006602052805f5260405f205f915090505481565b6001602052805f5260405f205f91509050805f015f9054906101000a900473ffffffffffffffffffffffffffffffffffffffff1690806001015f9054906101000a900473ffffffffffffffffffffffffffffffffffffffff169080600301549080600401549080600501549080600601549080600701549080600c015f9054906101000a900460ff16905088565b6110f56126a1565b8060025f8481526020019081526020015f205f0181905550600360015f8481526020019081526020015f20600c015f6101000a81548160ff021916908360048111156111445761114361372f565b5b02179055505050565b5f611156612728565b90505f73ffffffffffffffffffffffffffffffffffffffff168173ffffffffffffffffffffffffffffffffffffffff16036111c6576040517f08c379a00000000000000000000000000000000000000000000000000000000081526004016111bd906142f4565b60405180910390fd5b8073ffffffffffffffffffffffffffffffffffffffff163373ffffffffffffffffffffffffffffffffffffffff1614611234576040517f08c379a000000000000000000000000000000000000000000000000000000000815260040161122b90614382565b60405180910390fd5b61123f848484612750565b50505050565b61124d6126a1565b61126382826003612a4b9092919063ffffffff16565b50808273ffffffffffffffffffffffffffffffffffffffff167fb0c82c9fd889e2a03c3c513a8708dd3535578c770d917067e79574ffaf7e997360405160405180910390a35050565b5f60015f8381526020019081526020015f206008015f3373ffffffffffffffffffffffffffffffffffffffff1673ffffffffffffffffffffffffffffffffffffffff1681526020019081526020015f205f015f9054906101000a900460ff16905060015f8381526020019081526020015f206001015f9054906101000a900473ffffffffffffffffffffffffffffffffffffffff1673ffffffffffffffffffffffffffffffffffffffff1660025f8481526020019081526020015f206001015f9054906101000a900473ffffffffffffffffffffffffffffffffffffffff1673ffffffffffffffffffffffffffffffffffffffff161480156113d157506001808111156113bc576113bb61372f565b5b8160018111156113cf576113ce61372f565b5b145b8061149b575060015f8381526020019081526020015f205f015f9054906101000a900473ffffffffffffffffffffffffffffffffffffffff1673ffffffffffffffffffffffffffffffffffffffff1660025f8481526020019081526020015f206001015f9054906101000a900473ffffffffffffffffffffffffffffffffffffffff1673ffffffffffffffffffffffffffffffffffffffff1614801561149a57505f60018111156114855761148461372f565b5b8160018111156114985761149761372f565b5b145b5b1561167c5760015f8381526020019081526020015f206008015f3373ffffffffffffffffffffffffffffffffffffffff1673ffffffffffffffffffffffffffffffffffffffff1681526020019081526020015f205f0160019054906101000a900473ffffffffffffffffffffffffffffffffffffffff1673ffffffffffffffffffffffffffffffffffffffff1663a9059cbb3360015f8681526020019081526020015f206008015f3373ffffffffffffffffffffffffffffffffffffffff1673ffffffffffffffffffffffffffffffffffffffff1681526020019081526020015f20600101546040518363ffffffff1660e01b815260040161159e929190614164565b6020604051808303815f875af11580156115ba573d5f5f3e3d5ffd5b505050506040513d601f19601f820116820180604052508101906115de91906141c0565b5060015f8381526020019081526020015f206008015f3373ffffffffffffffffffffffffffffffffffffffff1673ffffffffffffffffffffffffffffffffffffffff1681526020019081526020015f205f5f82015f6101000a81549060ff02191690555f820160016101000a81549073ffffffffffffffffffffffffffffffffffffffff0219169055600182015f9055600282015f90555050611680565b5f5ffd5b5050565b61169084848484612184565b50505050565b61169e6126a1565b6116a75f612a7a565b565b5f5f5f9054906101000a900473ffffffffffffffffffffffffffffffffffffffff16905090565b8160025f8681526020019081526020015f206005015f3373ffffffffffffffffffffffffffffffffffffffff1673ffffffffffffffffffffffffffffffffffffffff1681526020019081526020015f20600101541161172d575f5ffd5b60025f8581526020019081526020015f206002015f9054906101000a900473ffffffffffffffffffffffffffffffffffffffff1673ffffffffffffffffffffffffffffffffffffffff1663b118194d848484336040518563ffffffff1660e01b815260040161179f9493929190614400565b5f604051808303815f87803b1580156117b6575f5ffd5b505af11580156117c8573d5f5f3e3d5ffd5b505050508160025f8681526020019081526020015f206004015f8282546117ef9190614131565b925050819055508160025f8681526020019081526020015f206005015f3373ffffffffffffffffffffffffffffffffffffffff1673ffffffffffffffffffffffffffffffffffffffff1681526020019081526020015f205f015f828254611856919061444a565b925050819055508160025f8681526020019081526020015f206005015f3373ffffffffffffffffffffffffffffffffffffffff1673ffffffffffffffffffffffffffffffffffffffff1681526020019081526020015f206001015f8282546118be9190614131565b9250508190555050505050565b60075481565b600160048111156118e5576118e461372f565b5b60015f8581526020019081526020015f20600c015f9054906101000a900460ff1660048111156119185761191761372f565b5b1461194f576040517f3cae8da900000000000000000000000000000000000000000000000000000000815260040160405180910390fd5b60015f8481526020019081526020015f20600401544210156119a6576040517f08c379a000000000000000000000000000000000000000000000000000000000815260040161199d906144c7565b60405180910390fd5b5f60095f9054906101000a900473ffffffffffffffffffffffffffffffffffffffff1673ffffffffffffffffffffffffffffffffffffffff1663d47eed4584846040518363ffffffff1660e01b8152600401611a0392919061463d565b602060405180830381865afa158015611a1e573d5f5f3e3d5ffd5b505050506040513d601f19601f82011682018060405250810190611a429190614673565b905060095f9054906101000a900473ffffffffffffffffffffffffffffffffffffffff1673ffffffffffffffffffffffffffffffffffffffff1663ef9e5e288285856040518463ffffffff1660e01b8152600401611aa192919061463d565b5f604051808303818588803b158015611ab8575f5ffd5b505af1158015611aca573d5f5f3e3d5ffd5b50505050505f60015f8681526020019081526020015f20600b018054905014611ca5575f60085f9054906101000a900473ffffffffffffffffffffffffffffffffffffffff1673ffffffffffffffffffffffffffffffffffffffff16638204b67a6040518163ffffffff1660e01b8152600401602060405180830381865afa158015611b58573d5f5f3e3d5ffd5b505050506040513d601f19601f82011682018060405250810190611b7c91906146e3565b9050806fffffffffffffffffffffffffffffffff16341015611bd3576040517f08c379a0000000000000000000000000000000000000000000000000000000008152600401611bca90614758565b60405180910390fd5b8460065f60085f9054906101000a900473ffffffffffffffffffffffffffffffffffffffff1673ffffffffffffffffffffffffffffffffffffffff16637b43155d856fffffffffffffffffffffffffffffffff166040518263ffffffff1660e01b815260040160206040518083038185885af1158015611c55573d5f5f3e3d5ffd5b50505050506040513d601f19601f82011682018060405250810190611c7a919061478a565b67ffffffffffffffff1667ffffffffffffffff1681526020019081526020015f208190555050611cfe565b5f5f611cb086612b3b565b91509150611cbf868383612e5f565b600260015f8881526020019081526020015f20600c015f6101000a81548160ff02191690836004811115611cf657611cf561372f565b5b021790555050505b50505050565b6002602052805f5260405f205f91509050805f015490806001015f9054906101000a900473ffffffffffffffffffffffffffffffffffffffff1690806002015f9054906101000a900473ffffffffffffffffffffffffffffffffffffffff16908060030154908060040154905085565b6060611d8060036130c0565b905090565b5f5f825f015160070b03611d97575f5ffd5b5f826060015103611da6575f5ffd5b5f825f015160070b1280611dc057505f826040015160030b135b15611dc9575f5ffd5b5f82604001517fffffffffffffffffffffffffffffffffffffffffffffffffffffffffffffffff611dfa91906147b5565b600a611e06919061492c565b670de0b6b3a7640000845f015167ffffffffffffffff16611e279190614093565b611e319190614101565b905080915050919050565b611e446132f4565b60015f8481526020019081526020015f206008015f8373ffffffffffffffffffffffffffffffffffffffff1673ffffffffffffffffffffffffffffffffffffffff1681526020019081526020015f206040518060800160405290815f82015f9054906101000a900460ff166001811115611ec157611ec061372f565b5b6001811115611ed357611ed261372f565b5b81526020015f820160019054906101000a900473ffffffffffffffffffffffffffffffffffffffff1673ffffffffffffffffffffffffffffffffffffffff1673ffffffffffffffffffffffffffffffffffffffff16815260200160018201548152602001600282015481525050905092915050565b5f5f915091565b611f576126a1565b5f73ffffffffffffffffffffffffffffffffffffffff168173ffffffffffffffffffffffffffffffffffffffff1603611fc7575f6040517f1e4fbdf7000000000000000000000000000000000000000000000000000000008152600401611fbe91906139d4565b60405180910390fd5b611fd081612a7a565b50565b60095f9054906101000a900473ffffffffffffffffffffffffffffffffffffffff1681565b5f5f1b60025f8681526020019081526020015f205f015403612018575f5ffd5b60025f8581526020019081526020015f206001015f9054906101000a900473ffffffffffffffffffffffffffffffffffffffff1673ffffffffffffffffffffffffffffffffffffffff166350ca245084848460025f8a81526020019081526020015f206002015f9054906101000a900473ffffffffffffffffffffffffffffffffffffffff166040518563ffffffff1660e01b81526004016120bd9493929190614400565b5f604051808303815f87803b1580156120d4575f5ffd5b505af11580156120e6573d5f5f3e3d5ffd5b505050508160025f8681526020019081526020015f206005015f3373ffffffffffffffffffffffffffffffffffffffff1673ffffffffffffffffffffffffffffffffffffffff1681526020019081526020015f205f015f82825461214a9190614131565b9250508190555050505050565b5f61217c835f018373ffffffffffffffffffffffffffffffffffffffff165f1b6130df565b905092915050565b600160048111156121985761219761372f565b5b60015f8681526020019081526020015f20600c015f9054906101000a900460ff1660048111156121cb576121ca61372f565b5b14612202576040517f3cae8da900000000000000000000000000000000000000000000000000000000815260040160405180910390fd5b60015f8581526020019081526020015f206002015f8373ffffffffffffffffffffffffffffffffffffffff1673ffffffffffffffffffffffffffffffffffffffff1681526020019081526020015f205f9054906101000a900460ff16612294576040517f13bf15d300000000000000000000000000000000000000000000000000000000815260040160405180910390fd5b5f60015f8681526020019081526020015f206008015f3373ffffffffffffffffffffffffffffffffffffffff1673ffffffffffffffffffffffffffffffffffffffff1681526020019081526020015f20600101541461231f576040517f62b79b2c00000000000000000000000000000000000000000000000000000000815260040160405180910390fd5b604051806080016040528084600181111561233d5761233c61372f565b5b81526020018373ffffffffffffffffffffffffffffffffffffffff1681526020018281526020014281525060015f8681526020019081526020015f206008015f3373ffffffffffffffffffffffffffffffffffffffff1673ffffffffffffffffffffffffffffffffffffffff1681526020019081526020015f205f820151815f015f6101000a81548160ff021916908360018111156123df576123de61372f565b5b02179055506020820151815f0160016101000a81548173ffffffffffffffffffffffffffffffffffffffff021916908373ffffffffffffffffffffffffffffffffffffffff16021790555060408201518160010155606082015181600201559050505f60018111156124545761245361372f565b5b8360018111156124675761246661372f565b5b036124d6578060015f8681526020019081526020015f206009015f8473ffffffffffffffffffffffffffffffffffffffff1673ffffffffffffffffffffffffffffffffffffffff1681526020019081526020015f205f8282546124ca9190614131565b9250508190555061253c565b8060015f8681526020019081526020015f20600a015f8473ffffffffffffffffffffffffffffffffffffffff1673ffffffffffffffffffffffffffffffffffffffff1681526020019081526020015f205f8282546125349190614131565b925050819055505b60015f8581526020019081526020015f2060040154610e104261255f9190614131565b106125d75760015f8581526020019081526020015f20600b0133908060018154018082558091505060019003905f5260205f20015f9091909190916101000a81548173ffffffffffffffffffffffffffffffffffffffff021916908373ffffffffffffffffffffffffffffffffffffffff1602179055505b8173ffffffffffffffffffffffffffffffffffffffff166323b872dd3330846040518463ffffffff1660e01b815260040161261493929190614976565b6020604051808303815f875af1158015612630573d5f5f3e3d5ffd5b505050506040513d601f19601f8201168201806040525081019061265491906141c0565b503373ffffffffffffffffffffffffffffffffffffffff16845f1b7fa7885dc963acd7f4c4178c177b863f5a99c33f1321a4e2575070e6a7f5791adb60405160405180910390a350505050565b6126a961315b565b73ffffffffffffffffffffffffffffffffffffffff166126c76116a9565b73ffffffffffffffffffffffffffffffffffffffff1614612726576126ea61315b565b6040517f118cdaa700000000000000000000000000000000000000000000000000000000815260040161271d91906139d4565b60405180910390fd5b565b5f60085f9054906101000a900473ffffffffffffffffffffffffffffffffffffffff16905090565b5f60065f8567ffffffffffffffff1667ffffffffffffffff1681526020019081526020015f205490505f610e10835f1c61278a91906149ab565b60015f8481526020019081526020015f20600401546127a9919061444a565b90505f60015f8481526020019081526020015f20600b018054905090505b5f81106129eb575f60015f8581526020019081526020015f206008015f60015f8781526020019081526020015f20600b01848154811061280a57612809614039565b5b905f5260205f20015f9054906101000a900473ffffffffffffffffffffffffffffffffffffffff1673ffffffffffffffffffffffffffffffffffffffff1673ffffffffffffffffffffffffffffffffffffffff1681526020019081526020015f209050828160020154101561287f57506129eb565b5f60018111156128925761289161372f565b5b815f015f9054906101000a900460ff1660018111156128b4576128b361372f565b5b0361294a57806001015460015f8681526020019081526020015f206009015f835f0160019054906101000a900473ffffffffffffffffffffffffffffffffffffffff1673ffffffffffffffffffffffffffffffffffffffff1673ffffffffffffffffffffffffffffffffffffffff1681526020019081526020015f205f82825461293e919061444a565b925050819055506129d7565b806001015460015f8681526020019081526020015f20600a015f835f0160019054906101000a900473ffffffffffffffffffffffffffffffffffffffff1673ffffffffffffffffffffffffffffffffffffffff1673ffffffffffffffffffffffffffffffffffffffff1681526020019081526020015f205f8282546129cf919061444a565b925050819055505b5080806129e3906149db565b9150506127c7565b505f5f6129f784612b3b565b91509150612a06848383612e5f565b600260015f8681526020019081526020015f20600c015f6101000a81548160ff02191690836004811115612a3d57612a3c61372f565b5b021790555050505050505050565b5f612a71845f018473ffffffffffffffffffffffffffffffffffffffff165f1b84613162565b90509392505050565b5f5f5f9054906101000a900473ffffffffffffffffffffffffffffffffffffffff169050815f5f6101000a81548173ffffffffffffffffffffffffffffffffffffffff021916908373ffffffffffffffffffffffffffffffffffffffff1602179055508173ffffffffffffffffffffffffffffffffffffffff168173ffffffffffffffffffffffffffffffffffffffff167f8be0079c531659141344cd1fd0a4f28419497f9722a3daafe3b4186f6b6457e060405160405180910390a35050565b5f5f5f612b46611d74565b90505f5f5f835190505f5f90505b81811015612dc85760015f8981526020019081526020015f206002015f868381518110612b8457612b83614039565b5b602002602001015173ffffffffffffffffffffffffffffffffffffffff1673ffffffffffffffffffffffffffffffffffffffff1681526020019081526020015f205f9054906101000a900460ff1615612dbb575f612c06868381518110612bee57612bed614039565b5b6020026020010151600361215790919063ffffffff16565b90505f60095f9054906101000a900473ffffffffffffffffffffffffffffffffffffffff1673ffffffffffffffffffffffffffffffffffffffff1663a4ae35e083603c6040518363ffffffff1660e01b8152600401612c66929190614a02565b608060405180830381865afa158015612c81573d5f5f3e3d5ffd5b505050506040513d601f19601f82011682018060405250810190612ca59190614ac6565b90505f612cb182611d85565b905060015f8c81526020019081526020015f206009015f898681518110612cdb57612cda614039565b5b602002602001015173ffffffffffffffffffffffffffffffffffffffff1673ffffffffffffffffffffffffffffffffffffffff1681526020019081526020015f205481612d289190614093565b87612d339190614131565b965060015f8c81526020019081526020015f20600a015f898681518110612d5d57612d5c614039565b5b602002602001015173ffffffffffffffffffffffffffffffffffffffff1673ffffffffffffffffffffffffffffffffffffffff1681526020019081526020015f205481612daa9190614093565b86612db59190614131565b95505050505b8080600101915050612b54565b5081831115612e175761271060015f8981526020019081526020015f206003015483612df49190614093565b612dfe9190614101565b83612e099190614131565b5f9550955050505050612e5a565b61271060015f8981526020019081526020015f206003015484612e3a9190614093565b612e449190614101565b82612e4f9190614131565b600195509550505050505b915091565b5f6001811115612e7257612e7161372f565b5b816001811115612e8557612e8461372f565b5b03612f985760015f8481526020019081526020015f206001015f9054906101000a900473ffffffffffffffffffffffffffffffffffffffff1660025f8581526020019081526020015f206001015f6101000a81548173ffffffffffffffffffffffffffffffffffffffff021916908373ffffffffffffffffffffffffffffffffffffffff16021790555060015f8481526020019081526020015f205f015f9054906101000a900473ffffffffffffffffffffffffffffffffffffffff1660025f8581526020019081526020015f206002015f6101000a81548173ffffffffffffffffffffffffffffffffffffffff021916908373ffffffffffffffffffffffffffffffffffffffff1602179055506130a2565b60015f8481526020019081526020015f205f015f9054906101000a900473ffffffffffffffffffffffffffffffffffffffff1660025f8581526020019081526020015f206001015f6101000a81548173ffffffffffffffffffffffffffffffffffffffff021916908373ffffffffffffffffffffffffffffffffffffffff16021790555060015f8481526020019081526020015f206001015f9054906101000a900473ffffffffffffffffffffffffffffffffffffffff1660025f8581526020019081526020015f206002015f6101000a81548173ffffffffffffffffffffffffffffffffffffffff021916908373ffffffffffffffffffffffffffffffffffffffff1602179055505b8160025f8581526020019081526020015f2060030181905550505050565b60605f6130ce835f01613199565b905060608190508092505050919050565b5f5f836002015f8481526020019081526020015f205490505f5f1b8114801561310f575061310d84846131ad565b155b1561315157826040517f02b56686000000000000000000000000000000000000000000000000000000008152600401613148919061361a565b60405180910390fd5b8091505092915050565b5f33905090565b5f81846002015f8581526020019081526020015f208190555061319083855f016131cb90919063ffffffff16565b90509392505050565b60606131a6825f016131e0565b9050919050565b5f6131c382845f016131ff90919063ffffffff16565b905092915050565b5f6131d8835f0183613214565b905092915050565b60605f6131ee835f0161327b565b905060608190508092505050919050565b5f61320c835f01836132d4565b905092915050565b5f61321f83836132d4565b61327157825f0182908060018154018082558091505060019003905f5260205f20015f9091909190915055825f0180549050836001015f8481526020019081526020015f208190555060019050613275565b5f90505b92915050565b6060815f018054806020026020016040519081016040528092919081815260200182805480156132c857602002820191905f5260205f20905b8154815260200190600101908083116132b4575b50505050509050919050565b5f5f836001015f8481526020019081526020015f20541415905092915050565b60405180608001604052805f60018111156133125761331161372f565b5b81526020015f73ffffffffffffffffffffffffffffffffffffffff1681526020015f81526020015f81525090565b5f604051905090565b5f5ffd5b5f5ffd5b5f819050919050565b61336381613351565b811461336d575f5ffd5b50565b5f8135905061337e8161335a565b92915050565b5f6020828403121561339957613398613349565b5b5f6133a684828501613370565b91505092915050565b5f73ffffffffffffffffffffffffffffffffffffffff82169050919050565b5f6133d8826133af565b9050919050565b5f6133e9826133ce565b9050919050565b6133f9816133df565b8114613403575f5ffd5b50565b5f81359050613414816133f0565b92915050565b5f5ffd5b5f5ffd5b5f5ffd5b5f5f83601f84011261343b5761343a61341a565b5b8235905067ffffffffffffffff8111156134585761345761341e565b5b60208301915083602082028301111561347457613473613422565b5b9250929050565b5f613485826133ce565b9050919050565b6134958161347b565b811461349f575f5ffd5b50565b5f813590506134b08161348c565b92915050565b5f5f5f5f5f5f5f5f5f5f5f6101408c8e0312156134d6576134d5613349565b5b5f6134e38e828f01613406565b9b505060206134f48e828f01613406565b9a505060408c013567ffffffffffffffff8111156135155761351461334d565b5b6135218e828f01613426565b995099505060606135348e828f01613370565b97505060806135458e828f01613370565b96505060a06135568e828f01613370565b95505060c06135678e828f01613370565b94505060e06135788e828f01613370565b93505061010061358a8e828f016134a2565b92505061012061359c8e828f01613370565b9150509295989b509295989b9093969950565b6135b881613351565b82525050565b5f6020820190506135d15f8301846135af565b92915050565b5f602082840312156135ec576135eb613349565b5b5f6135f9848285016134a2565b91505092915050565b5f819050919050565b61361481613602565b82525050565b5f60208201905061362d5f83018461360b565b92915050565b5f819050919050565b5f61365661365161364c846133af565b613633565b6133af565b9050919050565b5f6136678261363c565b9050919050565b5f6136788261365d565b9050919050565b6136888161366e565b82525050565b5f6020820190506136a15f83018461367f565b92915050565b5f67ffffffffffffffff82169050919050565b6136c3816136a7565b81146136cd575f5ffd5b50565b5f813590506136de816136ba565b92915050565b5f602082840312156136f9576136f8613349565b5b5f613706848285016136d0565b91505092915050565b5f6137198261365d565b9050919050565b6137298161370f565b82525050565b7f4e487b71000000000000000000000000000000000000000000000000000000005f52602160045260245ffd5b6005811061376d5761376c61372f565b5b50565b5f81905061377d8261375c565b919050565b5f61378c82613770565b9050919050565b61379c81613782565b82525050565b5f610100820190506137b65f83018b613720565b6137c3602083018a613720565b6137d060408301896135af565b6137dd60608301886135af565b6137ea60808301876135af565b6137f760a08301866135af565b61380460c08301856135af565b61381160e0830184613793565b9998505050505050505050565b61382781613602565b8114613831575f5ffd5b50565b5f813590506138428161381e565b92915050565b5f5f6040838503121561385e5761385d613349565b5b5f61386b85828601613370565b925050602061387c85828601613834565b9150509250929050565b61388f816133ce565b8114613899575f5ffd5b50565b5f813590506138aa81613886565b92915050565b5f5f5f606084860312156138c7576138c6613349565b5b5f6138d4868287016136d0565b93505060206138e58682870161389c565b92505060406138f686828701613834565b9150509250925092565b5f5f6040838503121561391657613915613349565b5b5f613923858286016134a2565b925050602061393485828601613834565b9150509250929050565b6002811061394a575f5ffd5b50565b5f8135905061395b8161393e565b92915050565b5f5f5f5f6080858703121561397957613978613349565b5b5f61398687828801613370565b94505060206139978782880161394d565b93505060406139a8878288016134a2565b92505060606139b987828801613370565b91505092959194509250565b6139ce816133ce565b82525050565b5f6020820190506139e75f8301846139c5565b92915050565b5f5ffd5b5f601f19601f8301169050919050565b7f4e487b71000000000000000000000000000000000000000000000000000000005f52604160045260245ffd5b613a37826139f1565b810181811067ffffffffffffffff82111715613a5657613a55613a01565b5b80604052505050565b5f613a68613340565b9050613a748282613a2e565b919050565b5f67ffffffffffffffff821115613a9357613a92613a01565b5b613a9c826139f1565b9050602081019050919050565b828183375f83830152505050565b5f613ac9613ac484613a79565b613a5f565b905082815260208101848484011115613ae557613ae46139ed565b5b613af0848285613aa9565b509392505050565b5f82601f830112613b0c57613b0b61341a565b5b8135613b1c848260208601613ab7565b91505092915050565b5f5f5f5f60808587031215613b3d57613b3c613349565b5b5f613b4a87828801613370565b9450506020613b5b8782880161389c565b9350506040613b6c87828801613370565b925050606085013567ffffffffffffffff811115613b8d57613b8c61334d565b5b613b9987828801613af8565b91505092959194509250565b5f5f83601f840112613bba57613bb961341a565b5b8235905067ffffffffffffffff811115613bd757613bd661341e565b5b602083019150836020820283011115613bf357613bf2613422565b5b9250929050565b5f5f5f60408486031215613c1157613c10613349565b5b5f613c1e86828701613370565b935050602084013567ffffffffffffffff811115613c3f57613c3e61334d565b5b613c4b86828701613ba5565b92509250509250925092565b5f60a082019050613c6a5f83018861360b565b613c776020830187613720565b613c846040830186613720565b613c9160608301856135af565b613c9e60808301846135af565b9695505050505050565b5f81519050919050565b5f82825260208201905092915050565b5f819050602082019050919050565b613cda816133ce565b82525050565b5f613ceb8383613cd1565b60208301905092915050565b5f602082019050919050565b5f613d0d82613ca8565b613d178185613cb2565b9350613d2283613cc2565b805f5b83811015613d52578151613d398882613ce0565b9750613d4483613cf7565b925050600181019050613d25565b5085935050505092915050565b5f6020820190508181035f830152613d778184613d03565b905092915050565b5f5ffd5b5f8160070b9050919050565b613d9881613d83565b8114613da2575f5ffd5b50565b5f81359050613db381613d8f565b92915050565b5f8160030b9050919050565b613dce81613db9565b8114613dd8575f5ffd5b50565b5f81359050613de981613dc5565b92915050565b5f60808284031215613e0457613e03613d7f565b5b613e0e6080613a5f565b90505f613e1d84828501613da5565b5f830152506020613e30848285016136d0565b6020830152506040613e4484828501613ddb565b6040830152506060613e5884828501613370565b60608301525092915050565b5f60808284031215613e7957613e78613349565b5b5f613e8684828501613def565b91505092915050565b5f5f60408385031215613ea557613ea4613349565b5b5f613eb285828601613370565b9250506020613ec38582860161389c565b9150509250929050565b60028110613ede57613edd61372f565b5b50565b5f819050613eee82613ecd565b919050565b5f613efd82613ee1565b9050919050565b613f0d81613ef3565b82525050565b5f613f1d8261365d565b9050919050565b613f2d81613f13565b82525050565b613f3c81613351565b82525050565b608082015f820151613f565f850182613f04565b506020820151613f696020850182613f24565b506040820151613f7c6040850182613f33565b506060820151613f8f6060850182613f33565b50505050565b5f608082019050613fa85f830184613f42565b92915050565b5f604082019050613fc15f8301856135af565b613fce60208301846135af565b9392505050565b5f60208284031215613fea57613fe9613349565b5b5f613ff78482850161389c565b91505092915050565b5f61400a8261365d565b9050919050565b61401a81614000565b82525050565b5f6020820190506140335f830184614011565b92915050565b7f4e487b71000000000000000000000000000000000000000000000000000000005f52603260045260245ffd5b7f4e487b71000000000000000000000000000000000000000000000000000000005f52601160045260245ffd5b5f61409d82613351565b91506140a883613351565b92508282026140b681613351565b915082820484148315176140cd576140cc614066565b5b5092915050565b7f4e487b71000000000000000000000000000000000000000000000000000000005f52601260045260245ffd5b5f61410b82613351565b915061411683613351565b925082614126576141256140d4565b5b828204905092915050565b5f61413b82613351565b915061414683613351565b925082820190508082111561415e5761415d614066565b5b92915050565b5f6040820190506141775f8301856139c5565b61418460208301846135af565b9392505050565b5f8115159050919050565b61419f8161418b565b81146141a9575f5ffd5b50565b5f815190506141ba81614196565b92915050565b5f602082840312156141d5576141d4613349565b5b5f6141e2848285016141ac565b91505092915050565b5f82825260208201905092915050565b7f496e76616c69642070656e616c697a6174696f6e0000000000000000000000005f82015250565b5f61422f6014836141eb565b915061423a826141fb565b602082019050919050565b5f6020820190508181035f83015261425c81614223565b9050919050565b5f61426d82613351565b91507fffffffffffffffffffffffffffffffffffffffffffffffffffffffffffffffff820361429f5761429e614066565b5b600182019050919050565b7f456e74726f70792061646472657373206e6f74207365740000000000000000005f82015250565b5f6142de6017836141eb565b91506142e9826142aa565b602082019050919050565b5f6020820190508181035f83015261430b816142d2565b9050919050565b7f4f6e6c7920456e74726f70792063616e2063616c6c20746869732066756e63745f8201527f696f6e0000000000000000000000000000000000000000000000000000000000602082015250565b5f61436c6023836141eb565b915061437782614312565b604082019050919050565b5f6020820190508181035f83015261439981614360565b9050919050565b5f81519050919050565b5f82825260208201905092915050565b8281835e5f83830152505050565b5f6143d2826143a0565b6143dc81856143aa565b93506143ec8185602086016143ba565b6143f5816139f1565b840191505092915050565b5f6080820190506144135f8301876139c5565b61442060208301866135af565b818103604083015261443281856143c8565b905061444160608301846139c5565b95945050505050565b5f61445482613351565b915061445f83613351565b925082820390508181111561447757614476614066565b5b92915050565b7f6e6f742066696e616c697a6564000000000000000000000000000000000000005f82015250565b5f6144b1600d836141eb565b91506144bc8261447d565b602082019050919050565b5f6020820190508181035f8301526144de816144a5565b9050919050565b5f82825260208201905092915050565b5f819050919050565b5f82825260208201905092915050565b5f61451983856144fe565b9350614526838584613aa9565b61452f836139f1565b840190509392505050565b5f61454684848461450e565b90509392505050565b5f5ffd5b5f5ffd5b5f5ffd5b5f5f8335600160200384360303811261457757614576614557565b5b83810192508235915060208301925067ffffffffffffffff82111561459f5761459e61454f565b5b6001820236038313156145b5576145b4614553565b5b509250929050565b5f602082019050919050565b5f6145d483856144e5565b9350836020840285016145e6846144f5565b805f5b8781101561462b578484038952614600828461455b565b61460b86828461453a565b9550614616846145bd565b935060208b019a5050506001810190506145e9565b50829750879450505050509392505050565b5f6020820190508181035f8301526146568184866145c9565b90509392505050565b5f8151905061466d8161335a565b92915050565b5f6020828403121561468857614687613349565b5b5f6146958482850161465f565b91505092915050565b5f6fffffffffffffffffffffffffffffffff82169050919050565b6146c28161469e565b81146146cc575f5ffd5b50565b5f815190506146dd816146b9565b92915050565b5f602082840312156146f8576146f7613349565b5b5f614705848285016146cf565b91505092915050565b7f6e6f7420656e6f756768206665657300000000000000000000000000000000005f82015250565b5f614742600f836141eb565b915061474d8261470e565b602082019050919050565b5f6020820190508181035f83015261476f81614736565b9050919050565b5f81519050614784816136ba565b92915050565b5f6020828403121561479f5761479e613349565b5b5f6147ac84828501614776565b91505092915050565b5f6147bf82613db9565b91506147ca83613db9565b92508282026147d881613db9565b91508082146147ea576147e9614066565b5b5092915050565b5f8160011c9050919050565b5f5f8291508390505b60018511156148465780860481111561482257614821614066565b5b60018516156148315780820291505b808102905061483f856147f1565b9450614806565b94509492505050565b5f8261485e5760019050614919565b8161486b575f9050614919565b8160018114614881576002811461488b576148ba565b6001915050614919565b60ff84111561489d5761489c614066565b5b8360020a9150848211156148b4576148b3614066565b5b50614919565b5060208310610133831016604e8410600b84101617156148ef5782820a9050838111156148ea576148e9614066565b5b614919565b6148fc84848460016147fd565b9250905081840481111561491357614912614066565b5b81810290505b9392505050565b5f60ff82169050919050565b5f61493682613351565b915061494183614920565b925061496e7fffffffffffffffffffffffffffffffffffffffffffffffffffffffffffffffff848461484f565b905092915050565b5f6060820190506149895f8301866139c5565b61499660208301856139c5565b6149a360408301846135af565b949350505050565b5f6149b582613351565b91506149c083613351565b9250826149d0576149cf6140d4565b5b828206905092915050565b5f6149e582613351565b91505f82036149f7576149f6614066565b5b600182039050919050565b5f604082019050614a155f83018561360b565b614a2260208301846135af565b9392505050565b5f81519050614a3781613d8f565b92915050565b5f81519050614a4b81613dc5565b92915050565b5f60808284031215614a6657614a65613d7f565b5b614a706080613a5f565b90505f614a7f84828501614a29565b5f830152506020614a9284828501614776565b6020830152506040614aa684828501614a3d565b6040830152506060614aba8482850161465f565b60608301525092915050565b5f60808284031215614adb57614ada613349565b5b5f614ae884828501614a51565b9150509291505056fea2646970667358221220c920b4cfc34a6354e87de29c77aaa68438c3718fc85451f8c6162560a947e12864736f6c634300081c0033",
  "linkReferences": {},
  "deployedLinkReferences": {},
  "immutableReferences": {},
  "inputSourceName": "project/contracts/BleethMeCore.sol",
  "buildInfoId": "solc-0_8_28-6bc3f3f8069b38c4efa32e0d58a76e3e630cc058"
}