{
  "_format": "hh3-artifact-1",
  "contractName": "BleethMeCore",
  "sourceName": "contracts/BleethMeCore.sol",
  "abi": [
    {
      "inputs": [
        {
          "internalType": "address",
          "name": "initialOwner",
          "type": "address"
        },
        {
          "internalType": "address",
          "name": "_entropy",
          "type": "address"
        },
        {
          "internalType": "address",
          "name": "_pyth",
          "type": "address"
        }
      ],
      "stateMutability": "nonpayable",
      "type": "constructor"
    },
    {
      "inputs": [],
      "name": "BetAlreadyPlaced",
      "type": "error"
    },
    {
      "inputs": [],
      "name": "BettingPeriodClosed",
      "type": "error"
    },
    {
      "inputs": [],
      "name": "BettingPeriodNotFinalized",
      "type": "error"
    },
    {
      "inputs": [
        {
          "internalType": "bytes32",
          "name": "key",
          "type": "bytes32"
        }
      ],
      "name": "EnumerableMapNonexistentKey",
      "type": "error"
    },
    {
      "inputs": [],
      "name": "InsufficientBetAmount",
      "type": "error"
    },
    {
      "inputs": [
        {
          "internalType": "address",
          "name": "owner",
          "type": "address"
        }
      ],
      "name": "OwnableInvalidOwner",
      "type": "error"
    },
    {
      "inputs": [
        {
          "internalType": "address",
          "name": "account",
          "type": "address"
        }
      ],
      "name": "OwnableUnauthorizedAccount",
      "type": "error"
    },
    {
      "inputs": [],
      "name": "RewardTokenNotWhitelisted",
      "type": "error"
    },
    {
      "anonymous": false,
      "inputs": [
        {
          "indexed": true,
          "internalType": "bytes32",
          "name": "poolId",
          "type": "bytes32"
        },
        {
          "indexed": true,
          "internalType": "address",
          "name": "user",
          "type": "address"
        }
      ],
      "name": "BetPlaced",
      "type": "event"
    },
    {
      "anonymous": false,
      "inputs": [
        {
          "indexed": true,
          "internalType": "address",
          "name": "previousOwner",
          "type": "address"
        },
        {
          "indexed": true,
          "internalType": "address",
          "name": "newOwner",
          "type": "address"
        }
      ],
      "name": "OwnershipTransferred",
      "type": "event"
    },
    {
      "anonymous": false,
      "inputs": [
        {
          "indexed": true,
          "internalType": "address",
          "name": "token",
          "type": "address"
        },
        {
          "indexed": true,
          "internalType": "bytes32",
          "name": "priceFeedId",
          "type": "bytes32"
        }
      ],
      "name": "RewardTokenWhitelisted",
      "type": "event"
    },
    {
      "anonymous": false,
      "inputs": [
        {
          "indexed": true,
          "internalType": "bytes32",
          "name": "poolId",
          "type": "bytes32"
        },
        {
          "indexed": true,
          "internalType": "address",
          "name": "attacker",
          "type": "address"
        },
        {
          "indexed": true,
          "internalType": "address",
          "name": "victim",
          "type": "address"
        }
      ],
      "name": "VAPoolCreated",
      "type": "event"
    },
    {
      "inputs": [
        {
          "internalType": "uint64",
          "name": "sequence",
          "type": "uint64"
        },
        {
          "internalType": "address",
          "name": "provider",
          "type": "address"
        },
        {
          "internalType": "bytes32",
          "name": "randomNumber",
          "type": "bytes32"
        }
      ],
      "name": "_entropyCallback",
      "outputs": [],
      "stateMutability": "nonpayable",
      "type": "function"
    },
    {
      "inputs": [
        {
          "internalType": "uint256",
          "name": "vaPoolId",
          "type": "uint256"
        }
      ],
      "name": "computeTotalBets",
      "outputs": [
        {
          "internalType": "uint256",
          "name": "totalFor",
          "type": "uint256"
        },
        {
          "internalType": "uint256",
          "name": "totalAgainst",
          "type": "uint256"
        }
      ],
      "stateMutability": "view",
      "type": "function"
    },
    {
      "inputs": [
        {
          "internalType": "contract IBaseAdapter",
          "name": "attacker",
          "type": "address"
        },
        {
          "internalType": "contract IBaseAdapter",
          "name": "victim",
          "type": "address"
        },
        {
          "internalType": "contract IERC20[]",
          "name": "rewardTokens",
          "type": "address[]"
        },
        {
          "internalType": "uint256",
          "name": "penalizationCoefficient",
          "type": "uint256"
        },
        {
          "internalType": "uint256",
          "name": "auctionDuration",
          "type": "uint256"
        },
        {
          "internalType": "uint256",
          "name": "liquidityMigrationDelay",
          "type": "uint256"
        },
        {
          "internalType": "uint256",
          "name": "lockDuration",
          "type": "uint256"
        },
        {
          "internalType": "uint256",
          "name": "snapshotLookupTimestamp",
          "type": "uint256"
        },
        {
          "internalType": "contract IERC20",
          "name": "initialBetToken",
          "type": "address"
        },
        {
          "internalType": "uint256",
          "name": "initialBetAmount",
          "type": "uint256"
        }
      ],
      "name": "createVaPool",
      "outputs": [
        {
          "internalType": "bytes32",
          "name": "poolId",
          "type": "bytes32"
        }
      ],
      "stateMutability": "nonpayable",
      "type": "function"
    },
    {
      "inputs": [],
      "name": "entropy",
      "outputs": [
        {
          "internalType": "contract IEntropyV2",
          "name": "",
          "type": "address"
        }
      ],
      "stateMutability": "view",
      "type": "function"
    },
    {
      "inputs": [
        {
          "internalType": "uint256",
          "name": "vaPoolId",
          "type": "uint256"
        },
        {
          "internalType": "bytes[]",
          "name": "priceUpdate",
          "type": "bytes[]"
        }
      ],
      "name": "finalizeBetting",
      "outputs": [],
      "stateMutability": "payable",
      "type": "function"
    },
    {
      "inputs": [
        {
          "internalType": "uint256",
          "name": "vaPoolId",
          "type": "uint256"
        }
      ],
      "name": "finalizeBettingPeriod",
      "outputs": [],
      "stateMutability": "nonpayable",
      "type": "function"
    },
    {
      "inputs": [
        {
          "internalType": "uint256",
          "name": "vaPoolId",
          "type": "uint256"
        },
        {
          "internalType": "address",
          "name": "better",
          "type": "address"
        }
      ],
      "name": "getBet",
      "outputs": [
        {
          "components": [
            {
              "internalType": "enum IBleethMeCore.BetSide",
              "name": "side",
              "type": "uint8"
            },
            {
              "internalType": "contract IERC20",
              "name": "token",
              "type": "address"
            },
            {
              "internalType": "uint256",
              "name": "amount",
              "type": "uint256"
            },
            {
              "internalType": "uint256",
              "name": "timestamp",
              "type": "uint256"
            }
          ],
          "internalType": "struct IBleethMeCore.Bet",
          "name": "",
          "type": "tuple"
        }
      ],
      "stateMutability": "view",
      "type": "function"
    },
    {
      "inputs": [
        {
          "internalType": "contract IERC20",
          "name": "token",
          "type": "address"
        }
      ],
      "name": "getWhitelistedRewardTokenPriceFeedId",
      "outputs": [
        {
          "internalType": "bytes32",
          "name": "",
          "type": "bytes32"
        }
      ],
      "stateMutability": "view",
      "type": "function"
    },
    {
      "inputs": [],
      "name": "getWhitelistedRewardTokens",
      "outputs": [
        {
          "internalType": "address[]",
          "name": "",
          "type": "address[]"
        }
      ],
      "stateMutability": "view",
      "type": "function"
    },
    {
      "inputs": [],
      "name": "owner",
      "outputs": [
        {
          "internalType": "address",
          "name": "",
          "type": "address"
        }
      ],
      "stateMutability": "view",
      "type": "function"
    },
    {
      "inputs": [
        {
          "internalType": "uint256",
          "name": "vaPoolId",
          "type": "uint256"
        },
        {
          "internalType": "enum IBleethMeCore.BetSide",
          "name": "side",
          "type": "uint8"
        },
        {
          "internalType": "contract IERC20",
          "name": "token",
          "type": "address"
        },
        {
          "internalType": "uint256",
          "name": "amount",
          "type": "uint256"
        }
      ],
      "name": "placeBet",
      "outputs": [],
      "stateMutability": "nonpayable",
      "type": "function"
    },
    {
      "inputs": [],
      "name": "pyth",
      "outputs": [
        {
          "internalType": "contract IPyth",
          "name": "",
          "type": "address"
        }
      ],
      "stateMutability": "view",
      "type": "function"
    },
    {
      "inputs": [
        {
          "internalType": "uint64",
          "name": "sequenceNumber",
          "type": "uint64"
        }
      ],
      "name": "randomnessMapping",
      "outputs": [
        {
          "internalType": "uint256",
          "name": "vaPoolId",
          "type": "uint256"
        }
      ],
      "stateMutability": "view",
      "type": "function"
    },
    {
      "inputs": [],
      "name": "renounceOwnership",
      "outputs": [],
      "stateMutability": "nonpayable",
      "type": "function"
    },
    {
      "inputs": [
        {
          "internalType": "contract IERC20",
          "name": "token",
          "type": "address"
        },
        {
          "internalType": "bytes32",
          "name": "priceFeedId",
          "type": "bytes32"
        }
      ],
      "name": "setWhitelistRewardToken",
      "outputs": [],
      "stateMutability": "nonpayable",
      "type": "function"
    },
    {
      "inputs": [
        {
          "internalType": "address",
          "name": "newOwner",
          "type": "address"
        }
      ],
      "name": "transferOwnership",
      "outputs": [],
      "stateMutability": "nonpayable",
      "type": "function"
    },
    {
      "inputs": [],
      "name": "vaPoolCount",
      "outputs": [
        {
          "internalType": "uint256",
          "name": "",
          "type": "uint256"
        }
      ],
      "stateMutability": "view",
      "type": "function"
    },
    {
      "inputs": [
        {
          "internalType": "uint256",
          "name": "",
          "type": "uint256"
        }
      ],
      "name": "vaPools",
      "outputs": [
        {
          "internalType": "contract IBaseAdapter",
          "name": "attacker",
          "type": "address"
        },
        {
          "internalType": "contract IBaseAdapter",
          "name": "victim",
          "type": "address"
        },
        {
          "internalType": "uint256",
          "name": "penalizationCoefficient",
          "type": "uint256"
        },
        {
          "internalType": "uint256",
          "name": "auctionEndTimestamp",
          "type": "uint256"
        },
        {
          "internalType": "uint256",
          "name": "liquidityMigrationTimestamp",
          "type": "uint256"
        },
        {
          "internalType": "uint256",
          "name": "lockTimestamp",
          "type": "uint256"
        },
        {
          "internalType": "uint256",
          "name": "snapshotLookupTimestamp",
          "type": "uint256"
        },
        {
          "internalType": "enum IBleethMeCore.VAPoolState",
          "name": "state",
          "type": "uint8"
        }
      ],
      "stateMutability": "view",
      "type": "function"
    },
    {
      "inputs": [
        {
          "internalType": "uint256",
          "name": "",
          "type": "uint256"
        }
      ],
      "name": "vaStreams",
      "outputs": [
        {
          "internalType": "bytes32",
          "name": "balancesMerkleRoot",
          "type": "bytes32"
        },
        {
          "internalType": "contract IBaseAdapter",
          "name": "liquidityOrigin",
          "type": "address"
        },
        {
          "internalType": "contract IBaseAdapter",
          "name": "liquidityDestination",
          "type": "address"
        },
        {
          "internalType": "uint256",
          "name": "totalRewards",
          "type": "uint256"
        }
      ],
      "stateMutability": "view",
      "type": "function"
    },
    {
      "inputs": [
        {
          "internalType": "uint256",
          "name": "vaPoolId",
          "type": "uint256"
        }
      ],
      "name": "withdrawFailedBet",
      "outputs": [],
      "stateMutability": "nonpayable",
      "type": "function"
    }
  ],
  "bytecode": "0x608060405234801561000f575f5ffd5b5060405161350738038061350783398181016040528101906100319190610259565b825f73ffffffffffffffffffffffffffffffffffffffff168173ffffffffffffffffffffffffffffffffffffffff16036100a2575f6040517f1e4fbdf700000000000000000000000000000000000000000000000000000000815260040161009991906102b8565b60405180910390fd5b6100b18161013a60201b60201c565b508160085f6101000a81548173ffffffffffffffffffffffffffffffffffffffff021916908373ffffffffffffffffffffffffffffffffffffffff1602179055508060095f6101000a81548173ffffffffffffffffffffffffffffffffffffffff021916908373ffffffffffffffffffffffffffffffffffffffff1602179055505050506102d1565b5f5f5f9054906101000a900473ffffffffffffffffffffffffffffffffffffffff169050815f5f6101000a81548173ffffffffffffffffffffffffffffffffffffffff021916908373ffffffffffffffffffffffffffffffffffffffff1602179055508173ffffffffffffffffffffffffffffffffffffffff168173ffffffffffffffffffffffffffffffffffffffff167f8be0079c531659141344cd1fd0a4f28419497f9722a3daafe3b4186f6b6457e060405160405180910390a35050565b5f5ffd5b5f73ffffffffffffffffffffffffffffffffffffffff82169050919050565b5f610228826101ff565b9050919050565b6102388161021e565b8114610242575f5ffd5b50565b5f815190506102538161022f565b92915050565b5f5f5f606084860312156102705761026f6101fb565b5b5f61027d86828701610245565b935050602061028e86828701610245565b925050604061029f86828701610245565b9150509250925092565b6102b28161021e565b82525050565b5f6020820190506102cb5f8301846102a9565b92915050565b613229806102de5f395ff3fe60806040526004361061011e575f3560e01c8063715018a61161009f578063d8f6749511610063578063d8f67495146103d0578063e0950ddf146103fa578063eba0f21814610436578063f2fde38b14610473578063f98d06f01461049b5761011e565b8063715018a61461030b5780638da5cb5b14610321578063adf62bac1461034b578063b6bd2caf14610375578063caf22975146103915761011e565b80634f63879a116100e65780634f63879a1461022857806352a5f1f81461026b57806358ec6a69146102935780636c1c3cdc146102bb5780636d986db0146102e35761011e565b8063202d293f146101225780632bc6071a1461015e5780633bf466a41461018657806347ce07cc146101c25780634a02a1a9146101ec575b5f5ffd5b34801561012d575f5ffd5b50610148600480360381019061014391906120f5565b6104c5565b6040516101559190612206565b60405180910390f35b348015610169575f5ffd5b50610184600480360381019061017f919061221f565b6108af565b005b348015610191575f5ffd5b506101ac60048036038101906101a7919061224a565b610974565b6040516101b99190612206565b60405180910390f35b3480156101cd575f5ffd5b506101d6610990565b6040516101e391906122d0565b60405180910390f35b3480156101f7575f5ffd5b50610212600480360381019061020d9190612326565b6109b5565b60405161021f9190612360565b60405180910390f35b348015610233575f5ffd5b5061024e6004803603810190610249919061221f565b6109ca565b60405161026298979695949392919061240c565b60405180910390f35b348015610276575f5ffd5b50610291600480360381019061028c91906124dc565b610a58565b005b34801561029e575f5ffd5b506102b960048036038101906102b4919061252c565b610b50565b005b3480156102c6575f5ffd5b506102e160048036038101906102dc919061221f565b610bb7565b005b3480156102ee575f5ffd5b506103096004803603810190610304919061258d565b610bba565b005b348015610316575f5ffd5b5061031f610bcc565b005b34801561032c575f5ffd5b50610335610bdf565b6040516103429190612600565b60405180910390f35b348015610356575f5ffd5b5061035f610c06565b60405161036c9190612360565b60405180910390f35b61038f600480360381019061038a919061266e565b610c0c565b005b34801561039c575f5ffd5b506103b760048036038101906103b2919061221f565b61103a565b6040516103c794939291906126cb565b60405180910390f35b3480156103db575f5ffd5b506103e46110a4565b6040516103f191906127c5565b60405180910390f35b348015610405575f5ffd5b50610420600480360381019061041b91906127e5565b6110b5565b60405161042d91906128eb565b60405180910390f35b348015610441575f5ffd5b5061045c6004803603810190610457919061221f565b6111c1565b60405161046a929190612904565b60405180910390f35b34801561047e575f5ffd5b506104996004803603810190610494919061292b565b6111c8565b005b3480156104a6575f5ffd5b506104af61124c565b6040516104bc9190612976565b60405180910390f35b5f8b60015f60075f81546104d8906129bc565b91905081905581526020019081526020015f205f015f6101000a81548173ffffffffffffffffffffffffffffffffffffffff021916908373ffffffffffffffffffffffffffffffffffffffff1602179055508a60015f60075481526020019081526020015f206001015f6101000a81548173ffffffffffffffffffffffffffffffffffffffff021916908373ffffffffffffffffffffffffffffffffffffffff1602179055508760015f60075481526020019081526020015f206003018190555086426105a59190612a03565b60015f60075481526020019081526020015f20600401819055508587426105cc9190612a03565b6105d69190612a03565b60015f60075481526020019081526020015f2060050181905550848688426105fe9190612a03565b6106089190612a03565b6106129190612a03565b60015f60075481526020019081526020015f20600601819055508360015f60075481526020019081526020015f20600701819055506001805f60075481526020019081526020015f20600c015f6101000a81548160ff0219169083600481111561067f5761067e612399565b5b02179055505f8a8a905090505f5f90505b818110156107a9575f5f1b6106d68d8d848181106106b1576106b0612a36565b5b90506020020160208101906106c6919061224a565b600361127190919063ffffffff16565b0361070d576040517f13bf15d300000000000000000000000000000000000000000000000000000000815260040160405180910390fd5b6001805f60075481526020019081526020015f206002015f8e8e8581811061073857610737612a36565b5b905060200201602081019061074d919061224a565b73ffffffffffffffffffffffffffffffffffffffff1673ffffffffffffffffffffffffffffffffffffffff1681526020019081526020015f205f6101000a81548160ff0219169083151502179055508080600101915050610690565b505f8310156107e4576040517f06f075a400000000000000000000000000000000000000000000000000000000815260040160405180910390fd5b5f5f1b6107fb85600361127190919063ffffffff16565b03610832576040517f13bf15d300000000000000000000000000000000000000000000000000000000815260040160405180910390fd5b6108406007545f868661129e565b8b73ffffffffffffffffffffffffffffffffffffffff168d73ffffffffffffffffffffffffffffffffffffffff166007545f1b7ff74d89d0a53b6902cca5170f8dfd91e41f0ebdbb768b2749d3b17a1ed1372f0260405160405180910390a4509b9a5050505050505050505050565b6108b76117bb565b600160048111156108cb576108ca612399565b5b60015f8381526020019081526020015f20600c015f9054906101000a900460ff1660048111156108fe576108fd612399565b5b14610935576040517f3cae8da900000000000000000000000000000000000000000000000000000000815260040160405180910390fd5b600260015f8381526020019081526020015f20600c015f6101000a81548160ff0219169083600481111561096c5761096b612399565b5b021790555050565b5f61098982600361127190919063ffffffff16565b9050919050565b60085f9054906101000a900473ffffffffffffffffffffffffffffffffffffffff1681565b6006602052805f5260405f205f915090505481565b6001602052805f5260405f205f91509050805f015f9054906101000a900473ffffffffffffffffffffffffffffffffffffffff1690806001015f9054906101000a900473ffffffffffffffffffffffffffffffffffffffff169080600301549080600401549080600501549080600601549080600701549080600c015f9054906101000a900460ff16905088565b5f610a61611842565b90505f73ffffffffffffffffffffffffffffffffffffffff168173ffffffffffffffffffffffffffffffffffffffff1603610ad1576040517f08c379a0000000000000000000000000000000000000000000000000000000008152600401610ac890612abd565b60405180910390fd5b8073ffffffffffffffffffffffffffffffffffffffff163373ffffffffffffffffffffffffffffffffffffffff1614610b3f576040517f08c379a0000000000000000000000000000000000000000000000000000000008152600401610b3690612b4b565b60405180910390fd5b610b4a84848461186a565b50505050565b610b586117bb565b610b6e82826003611b699092919063ffffffff16565b50808273ffffffffffffffffffffffffffffffffffffffff167fb0c82c9fd889e2a03c3c513a8708dd3535578c770d917067e79574ffaf7e997360405160405180910390a35050565b50565b610bc68484848461129e565b50505050565b610bd46117bb565b610bdd5f611b98565b565b5f5f5f9054906101000a900473ffffffffffffffffffffffffffffffffffffffff16905090565b60075481565b60016004811115610c2057610c1f612399565b5b60015f8581526020019081526020015f20600c015f9054906101000a900460ff166004811115610c5357610c52612399565b5b14610c8a576040517f3cae8da900000000000000000000000000000000000000000000000000000000815260040160405180910390fd5b60015f8481526020019081526020015f2060040154421015610ce1576040517f08c379a0000000000000000000000000000000000000000000000000000000008152600401610cd890612bb3565b60405180910390fd5b5f60095f9054906101000a900473ffffffffffffffffffffffffffffffffffffffff1673ffffffffffffffffffffffffffffffffffffffff1663d47eed4584846040518363ffffffff1660e01b8152600401610d3e929190612d47565b602060405180830381865afa158015610d59573d5f5f3e3d5ffd5b505050506040513d601f19601f82011682018060405250810190610d7d9190612d7d565b905060095f9054906101000a900473ffffffffffffffffffffffffffffffffffffffff1673ffffffffffffffffffffffffffffffffffffffff1663ef9e5e288285856040518463ffffffff1660e01b8152600401610ddc929190612d47565b5f604051808303818588803b158015610df3575f5ffd5b505af1158015610e05573d5f5f3e3d5ffd5b50505050505f60015f8681526020019081526020015f20600b018054905014610fe0575f60085f9054906101000a900473ffffffffffffffffffffffffffffffffffffffff1673ffffffffffffffffffffffffffffffffffffffff16638204b67a6040518163ffffffff1660e01b8152600401602060405180830381865afa158015610e93573d5f5f3e3d5ffd5b505050506040513d601f19601f82011682018060405250810190610eb79190612ded565b9050806fffffffffffffffffffffffffffffffff16341015610f0e576040517f08c379a0000000000000000000000000000000000000000000000000000000008152600401610f0590612e62565b60405180910390fd5b8460065f60085f9054906101000a900473ffffffffffffffffffffffffffffffffffffffff1673ffffffffffffffffffffffffffffffffffffffff16637b43155d856fffffffffffffffffffffffffffffffff166040518263ffffffff1660e01b815260040160206040518083038185885af1158015610f90573d5f5f3e3d5ffd5b50505050506040513d601f19601f82011682018060405250810190610fb59190612e94565b67ffffffffffffffff1667ffffffffffffffff1681526020019081526020015f208190555050611034565b5f610fea85611c59565b9050610ff68582611d26565b600260015f8781526020019081526020015f20600c015f6101000a81548160ff0219169083600481111561102d5761102c612399565b5b0217905550505b50505050565b6002602052805f5260405f205f91509050805f015490806001015f9054906101000a900473ffffffffffffffffffffffffffffffffffffffff1690806002015f9054906101000a900473ffffffffffffffffffffffffffffffffffffffff16908060030154905084565b60606110b06003611d2a565b905090565b6110bd611f5e565b60015f8481526020019081526020015f206008015f8373ffffffffffffffffffffffffffffffffffffffff1673ffffffffffffffffffffffffffffffffffffffff1681526020019081526020015f206040518060800160405290815f82015f9054906101000a900460ff16600181111561113a57611139612399565b5b600181111561114c5761114b612399565b5b81526020015f820160019054906101000a900473ffffffffffffffffffffffffffffffffffffffff1673ffffffffffffffffffffffffffffffffffffffff1673ffffffffffffffffffffffffffffffffffffffff16815260200160018201548152602001600282015481525050905092915050565b5f5f915091565b6111d06117bb565b5f73ffffffffffffffffffffffffffffffffffffffff168173ffffffffffffffffffffffffffffffffffffffff1603611240575f6040517f1e4fbdf70000000000000000000000000000000000000000000000000000000081526004016112379190612600565b60405180910390fd5b61124981611b98565b50565b60095f9054906101000a900473ffffffffffffffffffffffffffffffffffffffff1681565b5f611296835f018373ffffffffffffffffffffffffffffffffffffffff165f1b611d49565b905092915050565b600160048111156112b2576112b1612399565b5b60015f8681526020019081526020015f20600c015f9054906101000a900460ff1660048111156112e5576112e4612399565b5b1461131c576040517f3cae8da900000000000000000000000000000000000000000000000000000000815260040160405180910390fd5b60015f8581526020019081526020015f206002015f8373ffffffffffffffffffffffffffffffffffffffff1673ffffffffffffffffffffffffffffffffffffffff1681526020019081526020015f205f9054906101000a900460ff166113ae576040517f13bf15d300000000000000000000000000000000000000000000000000000000815260040160405180910390fd5b5f60015f8681526020019081526020015f206008015f3373ffffffffffffffffffffffffffffffffffffffff1673ffffffffffffffffffffffffffffffffffffffff1681526020019081526020015f206001015414611439576040517f62b79b2c00000000000000000000000000000000000000000000000000000000815260040160405180910390fd5b604051806080016040528084600181111561145757611456612399565b5b81526020018373ffffffffffffffffffffffffffffffffffffffff1681526020018281526020014281525060015f8681526020019081526020015f206008015f3373ffffffffffffffffffffffffffffffffffffffff1673ffffffffffffffffffffffffffffffffffffffff1681526020019081526020015f205f820151815f015f6101000a81548160ff021916908360018111156114f9576114f8612399565b5b02179055506020820151815f0160016101000a81548173ffffffffffffffffffffffffffffffffffffffff021916908373ffffffffffffffffffffffffffffffffffffffff16021790555060408201518160010155606082015181600201559050505f600181111561156e5761156d612399565b5b83600181111561158157611580612399565b5b036115f0578060015f8681526020019081526020015f206009015f8473ffffffffffffffffffffffffffffffffffffffff1673ffffffffffffffffffffffffffffffffffffffff1681526020019081526020015f205f8282546115e49190612a03565b92505081905550611656565b8060015f8681526020019081526020015f20600a015f8473ffffffffffffffffffffffffffffffffffffffff1673ffffffffffffffffffffffffffffffffffffffff1681526020019081526020015f205f82825461164e9190612a03565b925050819055505b60015f8581526020019081526020015f2060040154610e10426116799190612a03565b106116f15760015f8581526020019081526020015f20600b0133908060018154018082558091505060019003905f5260205f20015f9091909190916101000a81548173ffffffffffffffffffffffffffffffffffffffff021916908373ffffffffffffffffffffffffffffffffffffffff1602179055505b8173ffffffffffffffffffffffffffffffffffffffff166323b872dd3330846040518463ffffffff1660e01b815260040161172e93929190612ebf565b6020604051808303815f875af115801561174a573d5f5f3e3d5ffd5b505050506040513d601f19601f8201168201806040525081019061176e9190612f29565b503373ffffffffffffffffffffffffffffffffffffffff16845f1b7fa7885dc963acd7f4c4178c177b863f5a99c33f1321a4e2575070e6a7f5791adb60405160405180910390a350505050565b6117c3611dc5565b73ffffffffffffffffffffffffffffffffffffffff166117e1610bdf565b73ffffffffffffffffffffffffffffffffffffffff161461184057611804611dc5565b6040517f118cdaa70000000000000000000000000000000000000000000000000000000081526004016118379190612600565b60405180910390fd5b565b5f60085f9054906101000a900473ffffffffffffffffffffffffffffffffffffffff16905090565b5f60065f8567ffffffffffffffff1667ffffffffffffffff1681526020019081526020015f205490505f610e10835f1c6118a49190612f81565b60015f8481526020019081526020015f20600401546118c39190612fb1565b90506118cd611f5e565b5f60015f8581526020019081526020015f20600b018054905090505b5f8110611b0d575f60015f8681526020019081526020015f206008015f60015f8881526020019081526020015f20600b01848154811061192c5761192b612a36565b5b905f5260205f20015f9054906101000a900473ffffffffffffffffffffffffffffffffffffffff1673ffffffffffffffffffffffffffffffffffffffff1673ffffffffffffffffffffffffffffffffffffffff1681526020019081526020015f20905083816002015410156119a15750611b0d565b5f60018111156119b4576119b3612399565b5b815f015f9054906101000a900460ff1660018111156119d6576119d5612399565b5b03611a6c57806001015460015f8781526020019081526020015f206009015f835f0160019054906101000a900473ffffffffffffffffffffffffffffffffffffffff1673ffffffffffffffffffffffffffffffffffffffff1673ffffffffffffffffffffffffffffffffffffffff1681526020019081526020015f205f828254611a609190612fb1565b92505081905550611af9565b806001015460015f8781526020019081526020015f20600a015f835f0160019054906101000a900473ffffffffffffffffffffffffffffffffffffffff1673ffffffffffffffffffffffffffffffffffffffff1673ffffffffffffffffffffffffffffffffffffffff1681526020019081526020015f205f828254611af19190612fb1565b925050819055505b508080611b0590612fe4565b9150506118e9565b505f611b1884611c59565b9050611b248482611d26565b600260015f8681526020019081526020015f20600c015f6101000a81548160ff02191690836004811115611b5b57611b5a612399565b5b021790555050505050505050565b5f611b8f845f018473ffffffffffffffffffffffffffffffffffffffff165f1b84611dcc565b90509392505050565b5f5f5f9054906101000a900473ffffffffffffffffffffffffffffffffffffffff169050815f5f6101000a81548173ffffffffffffffffffffffffffffffffffffffff021916908373ffffffffffffffffffffffffffffffffffffffff1602179055508173ffffffffffffffffffffffffffffffffffffffff168173ffffffffffffffffffffffffffffffffffffffff167f8be0079c531659141344cd1fd0a4f28419497f9722a3daafe3b4186f6b6457e060405160405180910390a35050565b5f5f7fff61491a931112ddf1bd8147cd1b641375f79f5825126d665480874634fd0ace5f1b90505f60095f9054906101000a900473ffffffffffffffffffffffffffffffffffffffff1673ffffffffffffffffffffffffffffffffffffffff1663a4ae35e083603c6040518363ffffffff1660e01b8152600401611cde929190613044565b608060405180830381865afa158015611cf9573d5f5f3e3d5ffd5b505050506040513d601f19601f82011682018060405250810190611d1d91906131c8565b90505050919050565b5050565b60605f611d38835f01611e03565b905060608190508092505050919050565b5f5f836002015f8481526020019081526020015f205490505f5f1b81148015611d795750611d778484611e17565b155b15611dbb57826040517f02b56686000000000000000000000000000000000000000000000000000000008152600401611db29190612206565b60405180910390fd5b8091505092915050565b5f33905090565b5f81846002015f8581526020019081526020015f2081905550611dfa83855f01611e3590919063ffffffff16565b90509392505050565b6060611e10825f01611e4a565b9050919050565b5f611e2d82845f01611e6990919063ffffffff16565b905092915050565b5f611e42835f0183611e7e565b905092915050565b60605f611e58835f01611ee5565b905060608190508092505050919050565b5f611e76835f0183611f3e565b905092915050565b5f611e898383611f3e565b611edb57825f0182908060018154018082558091505060019003905f5260205f20015f9091909190915055825f0180549050836001015f8481526020019081526020015f208190555060019050611edf565b5f90505b92915050565b6060815f01805480602002602001604051908101604052809291908181526020018280548015611f3257602002820191905f5260205f20905b815481526020019060010190808311611f1e575b50505050509050919050565b5f5f836001015f8481526020019081526020015f20541415905092915050565b60405180608001604052805f6001811115611f7c57611f7b612399565b5b81526020015f73ffffffffffffffffffffffffffffffffffffffff1681526020015f81526020015f81525090565b5f604051905090565b5f5ffd5b5f5ffd5b5f73ffffffffffffffffffffffffffffffffffffffff82169050919050565b5f611fe482611fbb565b9050919050565b5f611ff582611fda565b9050919050565b61200581611feb565b811461200f575f5ffd5b50565b5f8135905061202081611ffc565b92915050565b5f5ffd5b5f5ffd5b5f5ffd5b5f5f83601f84011261204757612046612026565b5b8235905067ffffffffffffffff8111156120645761206361202a565b5b6020830191508360208202830111156120805761207f61202e565b5b9250929050565b5f819050919050565b61209981612087565b81146120a3575f5ffd5b50565b5f813590506120b481612090565b92915050565b5f6120c482611fda565b9050919050565b6120d4816120ba565b81146120de575f5ffd5b50565b5f813590506120ef816120cb565b92915050565b5f5f5f5f5f5f5f5f5f5f5f6101408c8e03121561211557612114611fb3565b5b5f6121228e828f01612012565b9b505060206121338e828f01612012565b9a505060408c013567ffffffffffffffff81111561215457612153611fb7565b5b6121608e828f01612032565b995099505060606121738e828f016120a6565b97505060806121848e828f016120a6565b96505060a06121958e828f016120a6565b95505060c06121a68e828f016120a6565b94505060e06121b78e828f016120a6565b9350506101006121c98e828f016120e1565b9250506101206121db8e828f016120a6565b9150509295989b509295989b9093969950565b5f819050919050565b612200816121ee565b82525050565b5f6020820190506122195f8301846121f7565b92915050565b5f6020828403121561223457612233611fb3565b5b5f612241848285016120a6565b91505092915050565b5f6020828403121561225f5761225e611fb3565b5b5f61226c848285016120e1565b91505092915050565b5f819050919050565b5f61229861229361228e84611fbb565b612275565b611fbb565b9050919050565b5f6122a98261227e565b9050919050565b5f6122ba8261229f565b9050919050565b6122ca816122b0565b82525050565b5f6020820190506122e35f8301846122c1565b92915050565b5f67ffffffffffffffff82169050919050565b612305816122e9565b811461230f575f5ffd5b50565b5f81359050612320816122fc565b92915050565b5f6020828403121561233b5761233a611fb3565b5b5f61234884828501612312565b91505092915050565b61235a81612087565b82525050565b5f6020820190506123735f830184612351565b92915050565b5f6123838261229f565b9050919050565b61239381612379565b82525050565b7f4e487b71000000000000000000000000000000000000000000000000000000005f52602160045260245ffd5b600581106123d7576123d6612399565b5b50565b5f8190506123e7826123c6565b919050565b5f6123f6826123da565b9050919050565b612406816123ec565b82525050565b5f610100820190506124205f83018b61238a565b61242d602083018a61238a565b61243a6040830189612351565b6124476060830188612351565b6124546080830187612351565b61246160a0830186612351565b61246e60c0830185612351565b61247b60e08301846123fd565b9998505050505050505050565b61249181611fda565b811461249b575f5ffd5b50565b5f813590506124ac81612488565b92915050565b6124bb816121ee565b81146124c5575f5ffd5b50565b5f813590506124d6816124b2565b92915050565b5f5f5f606084860312156124f3576124f2611fb3565b5b5f61250086828701612312565b93505060206125118682870161249e565b9250506040612522868287016124c8565b9150509250925092565b5f5f6040838503121561254257612541611fb3565b5b5f61254f858286016120e1565b9250506020612560858286016124c8565b9150509250929050565b60028110612576575f5ffd5b50565b5f813590506125878161256a565b92915050565b5f5f5f5f608085870312156125a5576125a4611fb3565b5b5f6125b2878288016120a6565b94505060206125c387828801612579565b93505060406125d4878288016120e1565b92505060606125e5878288016120a6565b91505092959194509250565b6125fa81611fda565b82525050565b5f6020820190506126135f8301846125f1565b92915050565b5f5f83601f84011261262e5761262d612026565b5b8235905067ffffffffffffffff81111561264b5761264a61202a565b5b6020830191508360208202830111156126675761266661202e565b5b9250929050565b5f5f5f6040848603121561268557612684611fb3565b5b5f612692868287016120a6565b935050602084013567ffffffffffffffff8111156126b3576126b2611fb7565b5b6126bf86828701612619565b92509250509250925092565b5f6080820190506126de5f8301876121f7565b6126eb602083018661238a565b6126f8604083018561238a565b6127056060830184612351565b95945050505050565b5f81519050919050565b5f82825260208201905092915050565b5f819050602082019050919050565b61274081611fda565b82525050565b5f6127518383612737565b60208301905092915050565b5f602082019050919050565b5f6127738261270e565b61277d8185612718565b935061278883612728565b805f5b838110156127b857815161279f8882612746565b97506127aa8361275d565b92505060018101905061278b565b5085935050505092915050565b5f6020820190508181035f8301526127dd8184612769565b905092915050565b5f5f604083850312156127fb576127fa611fb3565b5b5f612808858286016120a6565b92505060206128198582860161249e565b9150509250929050565b6002811061283457612833612399565b5b50565b5f81905061284482612823565b919050565b5f61285382612837565b9050919050565b61286381612849565b82525050565b5f6128738261229f565b9050919050565b61288381612869565b82525050565b61289281612087565b82525050565b608082015f8201516128ac5f85018261285a565b5060208201516128bf602085018261287a565b5060408201516128d26040850182612889565b5060608201516128e56060850182612889565b50505050565b5f6080820190506128fe5f830184612898565b92915050565b5f6040820190506129175f830185612351565b6129246020830184612351565b9392505050565b5f602082840312156129405761293f611fb3565b5b5f61294d8482850161249e565b91505092915050565b5f6129608261229f565b9050919050565b61297081612956565b82525050565b5f6020820190506129895f830184612967565b92915050565b7f4e487b71000000000000000000000000000000000000000000000000000000005f52601160045260245ffd5b5f6129c682612087565b91507fffffffffffffffffffffffffffffffffffffffffffffffffffffffffffffffff82036129f8576129f761298f565b5b600182019050919050565b5f612a0d82612087565b9150612a1883612087565b9250828201905080821115612a3057612a2f61298f565b5b92915050565b7f4e487b71000000000000000000000000000000000000000000000000000000005f52603260045260245ffd5b5f82825260208201905092915050565b7f456e74726f70792061646472657373206e6f74207365740000000000000000005f82015250565b5f612aa7601783612a63565b9150612ab282612a73565b602082019050919050565b5f6020820190508181035f830152612ad481612a9b565b9050919050565b7f4f6e6c7920456e74726f70792063616e2063616c6c20746869732066756e63745f8201527f696f6e0000000000000000000000000000000000000000000000000000000000602082015250565b5f612b35602383612a63565b9150612b4082612adb565b604082019050919050565b5f6020820190508181035f830152612b6281612b29565b9050919050565b7f6e6f742066696e616c697a6564000000000000000000000000000000000000005f82015250565b5f612b9d600d83612a63565b9150612ba882612b69565b602082019050919050565b5f6020820190508181035f830152612bca81612b91565b9050919050565b5f82825260208201905092915050565b5f819050919050565b5f82825260208201905092915050565b828183375f83830152505050565b5f601f19601f8301169050919050565b5f612c238385612bea565b9350612c30838584612bfa565b612c3983612c08565b840190509392505050565b5f612c50848484612c18565b90509392505050565b5f5ffd5b5f5ffd5b5f5ffd5b5f5f83356001602003843603038112612c8157612c80612c61565b5b83810192508235915060208301925067ffffffffffffffff821115612ca957612ca8612c59565b5b600182023603831315612cbf57612cbe612c5d565b5b509250929050565b5f602082019050919050565b5f612cde8385612bd1565b935083602084028501612cf084612be1565b805f5b87811015612d35578484038952612d0a8284612c65565b612d15868284612c44565b9550612d2084612cc7565b935060208b019a505050600181019050612cf3565b50829750879450505050509392505050565b5f6020820190508181035f830152612d60818486612cd3565b90509392505050565b5f81519050612d7781612090565b92915050565b5f60208284031215612d9257612d91611fb3565b5b5f612d9f84828501612d69565b91505092915050565b5f6fffffffffffffffffffffffffffffffff82169050919050565b612dcc81612da8565b8114612dd6575f5ffd5b50565b5f81519050612de781612dc3565b92915050565b5f60208284031215612e0257612e01611fb3565b5b5f612e0f84828501612dd9565b91505092915050565b7f6e6f7420656e6f756768206665657300000000000000000000000000000000005f82015250565b5f612e4c600f83612a63565b9150612e5782612e18565b602082019050919050565b5f6020820190508181035f830152612e7981612e40565b9050919050565b5f81519050612e8e816122fc565b92915050565b5f60208284031215612ea957612ea8611fb3565b5b5f612eb684828501612e80565b91505092915050565b5f606082019050612ed25f8301866125f1565b612edf60208301856125f1565b612eec6040830184612351565b949350505050565b5f8115159050919050565b612f0881612ef4565b8114612f12575f5ffd5b50565b5f81519050612f2381612eff565b92915050565b5f60208284031215612f3e57612f3d611fb3565b5b5f612f4b84828501612f15565b91505092915050565b7f4e487b71000000000000000000000000000000000000000000000000000000005f52601260045260245ffd5b5f612f8b82612087565b9150612f9683612087565b925082612fa657612fa5612f54565b5b828206905092915050565b5f612fbb82612087565b9150612fc683612087565b9250828203905081811115612fde57612fdd61298f565b5b92915050565b5f612fee82612087565b91505f820361300057612fff61298f565b5b600182039050919050565b5f819050919050565b5f61302e6130296130248461300b565b612275565b612087565b9050919050565b61303e81613014565b82525050565b5f6040820190506130575f8301856121f7565b6130646020830184613035565b9392505050565b5f5ffd5b7f4e487b71000000000000000000000000000000000000000000000000000000005f52604160045260245ffd5b6130a582612c08565b810181811067ffffffffffffffff821117156130c4576130c361306f565b5b80604052505050565b5f6130d6611faa565b90506130e2828261309c565b919050565b5f8160070b9050919050565b6130fc816130e7565b8114613106575f5ffd5b50565b5f81519050613117816130f3565b92915050565b5f8160030b9050919050565b6131328161311d565b811461313c575f5ffd5b50565b5f8151905061314d81613129565b92915050565b5f608082840312156131685761316761306b565b5b61317260806130cd565b90505f61318184828501613109565b5f83015250602061319484828501612e80565b60208301525060406131a88482850161313f565b60408301525060606131bc84828501612d69565b60608301525092915050565b5f608082840312156131dd576131dc611fb3565b5b5f6131ea84828501613153565b9150509291505056fea2646970667358221220b9e16c45ca997c7f26d61e3ba1acbe72254d2d4bcd35a8658d7b946523ba04cf64736f6c634300081c0033",
  "linkReferences": {},
  "deployedLinkReferences": {},
  "immutableReferences": {},
  "inputSourceName": "project/contracts/BleethMeCore.sol",
  "buildInfoId": "solc-0_8_28-7e2905ba58dbd77fee8103a3a26b5b0045da34c6"
}