{
  "_format": "hh3-artifact-1",
  "contractName": "BleethMeCore",
  "sourceName": "contracts/BleethMeCore.sol",
  "abi": [
    {
      "inputs": [
        {
          "internalType": "address",
          "name": "initialOwner",
          "type": "address"
        },
        {
          "internalType": "address",
          "name": "_entropy",
          "type": "address"
        },
        {
          "internalType": "address",
          "name": "_pyth",
          "type": "address"
        }
      ],
      "stateMutability": "nonpayable",
      "type": "constructor"
    },
    {
      "inputs": [],
      "name": "BetAlreadyPlaced",
      "type": "error"
    },
    {
      "inputs": [],
      "name": "BettingPeriodClosed",
      "type": "error"
    },
    {
      "inputs": [],
      "name": "BettingPeriodNotFinalized",
      "type": "error"
    },
    {
      "inputs": [
        {
          "internalType": "bytes32",
          "name": "key",
          "type": "bytes32"
        }
      ],
      "name": "EnumerableMapNonexistentKey",
      "type": "error"
    },
    {
      "inputs": [],
      "name": "InsufficientBetAmount",
      "type": "error"
    },
    {
      "inputs": [
        {
          "internalType": "address",
          "name": "owner",
          "type": "address"
        }
      ],
      "name": "OwnableInvalidOwner",
      "type": "error"
    },
    {
      "inputs": [
        {
          "internalType": "address",
          "name": "account",
          "type": "address"
        }
      ],
      "name": "OwnableUnauthorizedAccount",
      "type": "error"
    },
    {
      "inputs": [],
      "name": "RewardTokenNotWhitelisted",
      "type": "error"
    },
    {
      "anonymous": false,
      "inputs": [
        {
          "indexed": true,
          "internalType": "bytes32",
          "name": "poolId",
          "type": "bytes32"
        },
        {
          "indexed": true,
          "internalType": "address",
          "name": "user",
          "type": "address"
        }
      ],
      "name": "BetPlaced",
      "type": "event"
    },
    {
      "anonymous": false,
      "inputs": [
        {
          "indexed": true,
          "internalType": "address",
          "name": "previousOwner",
          "type": "address"
        },
        {
          "indexed": true,
          "internalType": "address",
          "name": "newOwner",
          "type": "address"
        }
      ],
      "name": "OwnershipTransferred",
      "type": "event"
    },
    {
      "anonymous": false,
      "inputs": [
        {
          "indexed": true,
          "internalType": "address",
          "name": "token",
          "type": "address"
        },
        {
          "indexed": true,
          "internalType": "bytes32",
          "name": "priceFeedId",
          "type": "bytes32"
        }
      ],
      "name": "RewardTokenWhitelisted",
      "type": "event"
    },
    {
      "anonymous": false,
      "inputs": [
        {
          "indexed": true,
          "internalType": "bytes32",
          "name": "poolId",
          "type": "bytes32"
        },
        {
          "indexed": true,
          "internalType": "address",
          "name": "attacker",
          "type": "address"
        },
        {
          "indexed": true,
          "internalType": "address",
          "name": "victim",
          "type": "address"
        }
      ],
      "name": "VAPoolCreated",
      "type": "event"
    },
    {
      "inputs": [
        {
          "internalType": "uint64",
          "name": "sequence",
          "type": "uint64"
        },
        {
          "internalType": "address",
          "name": "provider",
          "type": "address"
        },
        {
          "internalType": "bytes32",
          "name": "randomNumber",
          "type": "bytes32"
        }
      ],
      "name": "_entropyCallback",
      "outputs": [],
      "stateMutability": "nonpayable",
      "type": "function"
    },
    {
      "inputs": [
        {
          "internalType": "uint256",
          "name": "vaPoolId",
          "type": "uint256"
        },
        {
          "internalType": "address",
          "name": "tokenToMigrate",
          "type": "address"
        },
        {
          "internalType": "uint256",
          "name": "amountToAllocate",
          "type": "uint256"
        },
        {
          "internalType": "bytes",
          "name": "migrationData",
          "type": "bytes"
        }
      ],
      "name": "allocateLiquidityPosition",
      "outputs": [],
      "stateMutability": "nonpayable",
      "type": "function"
    },
    {
      "inputs": [
        {
          "internalType": "uint256",
          "name": "vaPoolId",
          "type": "uint256"
        }
      ],
      "name": "claimRewards",
      "outputs": [],
      "stateMutability": "nonpayable",
      "type": "function"
    },
    {
      "inputs": [
        {
          "internalType": "uint256",
          "name": "vaPoolId",
          "type": "uint256"
        }
      ],
      "name": "computeTotalBets",
      "outputs": [
        {
          "internalType": "uint256",
          "name": "totalFor",
          "type": "uint256"
        },
        {
          "internalType": "uint256",
          "name": "totalAgainst",
          "type": "uint256"
        }
      ],
      "stateMutability": "view",
      "type": "function"
    },
    {
      "inputs": [
        {
          "internalType": "contract IBaseAdapter",
          "name": "attacker",
          "type": "address"
        },
        {
          "internalType": "contract IBaseAdapter",
          "name": "victim",
          "type": "address"
        },
        {
          "internalType": "contract IERC20[]",
          "name": "rewardTokens",
          "type": "address[]"
        },
        {
          "internalType": "uint256",
          "name": "penalizationCoefficient",
          "type": "uint256"
        },
        {
          "internalType": "uint256",
          "name": "auctionDuration",
          "type": "uint256"
        },
        {
          "internalType": "uint256",
          "name": "liquidityMigrationDelay",
          "type": "uint256"
        },
        {
          "internalType": "uint256",
          "name": "lockDuration",
          "type": "uint256"
        },
        {
          "internalType": "uint256",
          "name": "snapshotLookupTimestamp",
          "type": "uint256"
        },
        {
          "internalType": "contract IERC20",
          "name": "initialBetToken",
          "type": "address"
        },
        {
          "internalType": "uint256",
          "name": "initialBetAmount",
          "type": "uint256"
        }
      ],
      "name": "createVaPool",
      "outputs": [
        {
          "internalType": "bytes32",
          "name": "poolId",
          "type": "bytes32"
        }
      ],
      "stateMutability": "nonpayable",
      "type": "function"
    },
    {
      "inputs": [
        {
          "internalType": "uint256",
          "name": "vaPoolId",
          "type": "uint256"
        },
        {
          "internalType": "address",
          "name": "tokenToMigrate",
          "type": "address"
        },
        {
          "internalType": "uint256",
          "name": "amountToMigrate",
          "type": "uint256"
        },
        {
          "internalType": "bytes",
          "name": "extractionData",
          "type": "bytes"
        }
      ],
      "name": "deconstructLiquidityPosition",
      "outputs": [],
      "stateMutability": "nonpayable",
      "type": "function"
    },
    {
      "inputs": [],
      "name": "entropy",
      "outputs": [
        {
          "internalType": "contract IEntropyV2",
          "name": "",
          "type": "address"
        }
      ],
      "stateMutability": "view",
      "type": "function"
    },
    {
      "inputs": [
        {
          "internalType": "uint256",
          "name": "vaPoolId",
          "type": "uint256"
        },
        {
          "internalType": "bytes[]",
          "name": "priceUpdate",
          "type": "bytes[]"
        }
      ],
      "name": "finalizeBetting",
      "outputs": [],
      "stateMutability": "payable",
      "type": "function"
    },
    {
      "inputs": [
        {
          "internalType": "uint256",
          "name": "vaPoolId",
          "type": "uint256"
        }
      ],
      "name": "finalizeBettingPeriod",
      "outputs": [],
      "stateMutability": "nonpayable",
      "type": "function"
    },
    {
      "inputs": [
        {
          "internalType": "uint256",
          "name": "vaPoolId",
          "type": "uint256"
        },
        {
          "internalType": "address",
          "name": "better",
          "type": "address"
        }
      ],
      "name": "getBet",
      "outputs": [
        {
          "components": [
            {
              "internalType": "enum IBleethMeCore.BetSide",
              "name": "side",
              "type": "uint8"
            },
            {
              "internalType": "contract IERC20",
              "name": "token",
              "type": "address"
            },
            {
              "internalType": "uint256",
              "name": "amount",
              "type": "uint256"
            },
            {
              "internalType": "uint256",
              "name": "timestamp",
              "type": "uint256"
            }
          ],
          "internalType": "struct IBleethMeCore.Bet",
          "name": "",
          "type": "tuple"
        }
      ],
      "stateMutability": "view",
      "type": "function"
    },
    {
      "inputs": [
        {
          "internalType": "int64",
          "name": "price",
          "type": "int64"
        },
        {
          "internalType": "int32",
          "name": "expo",
          "type": "int32"
        }
      ],
      "name": "getPythPrice1e18",
      "outputs": [
        {
          "internalType": "uint256",
          "name": "",
          "type": "uint256"
        }
      ],
      "stateMutability": "pure",
      "type": "function"
    },
    {
      "inputs": [
        {
          "internalType": "contract IERC20",
          "name": "token",
          "type": "address"
        }
      ],
      "name": "getWhitelistedRewardTokenPriceFeedId",
      "outputs": [
        {
          "internalType": "bytes32",
          "name": "",
          "type": "bytes32"
        }
      ],
      "stateMutability": "view",
      "type": "function"
    },
    {
      "inputs": [],
      "name": "getWhitelistedRewardTokens",
      "outputs": [
        {
          "internalType": "address[]",
          "name": "",
          "type": "address[]"
        }
      ],
      "stateMutability": "view",
      "type": "function"
    },
    {
      "inputs": [],
      "name": "owner",
      "outputs": [
        {
          "internalType": "address",
          "name": "",
          "type": "address"
        }
      ],
      "stateMutability": "view",
      "type": "function"
    },
    {
      "inputs": [
        {
          "internalType": "uint256",
          "name": "vaPoolId",
          "type": "uint256"
        },
        {
          "internalType": "enum IBleethMeCore.BetSide",
          "name": "side",
          "type": "uint8"
        },
        {
          "internalType": "contract IERC20",
          "name": "token",
          "type": "address"
        },
        {
          "internalType": "uint256",
          "name": "amount",
          "type": "uint256"
        }
      ],
      "name": "placeBet",
      "outputs": [],
      "stateMutability": "nonpayable",
      "type": "function"
    },
    {
      "inputs": [],
      "name": "pyth",
      "outputs": [
        {
          "internalType": "contract IPyth",
          "name": "",
          "type": "address"
        }
      ],
      "stateMutability": "view",
      "type": "function"
    },
    {
      "inputs": [
        {
          "internalType": "uint64",
          "name": "sequenceNumber",
          "type": "uint64"
        }
      ],
      "name": "randomnessMapping",
      "outputs": [
        {
          "internalType": "uint256",
          "name": "vaPoolId",
          "type": "uint256"
        }
      ],
      "stateMutability": "view",
      "type": "function"
    },
    {
      "inputs": [],
      "name": "renounceOwnership",
      "outputs": [],
      "stateMutability": "nonpayable",
      "type": "function"
    },
    {
      "inputs": [
        {
          "internalType": "contract IERC20",
          "name": "token",
          "type": "address"
        },
        {
          "internalType": "bytes32",
          "name": "priceFeedId",
          "type": "bytes32"
        }
      ],
      "name": "setWhitelistRewardToken",
      "outputs": [],
      "stateMutability": "nonpayable",
      "type": "function"
    },
    {
      "inputs": [
        {
          "internalType": "address",
          "name": "newOwner",
          "type": "address"
        }
      ],
      "name": "transferOwnership",
      "outputs": [],
      "stateMutability": "nonpayable",
      "type": "function"
    },
    {
      "inputs": [
        {
          "internalType": "uint256",
          "name": "vaPoolId",
          "type": "uint256"
        },
        {
          "internalType": "bytes32",
          "name": "root",
          "type": "bytes32"
        }
      ],
      "name": "updatePositionMerkleRoot",
      "outputs": [],
      "stateMutability": "nonpayable",
      "type": "function"
    },
    {
      "inputs": [],
      "name": "vaPoolCount",
      "outputs": [
        {
          "internalType": "uint256",
          "name": "",
          "type": "uint256"
        }
      ],
      "stateMutability": "view",
      "type": "function"
    },
    {
      "inputs": [
        {
          "internalType": "uint256",
          "name": "",
          "type": "uint256"
        }
      ],
      "name": "vaPools",
      "outputs": [
        {
          "internalType": "contract IBaseAdapter",
          "name": "attacker",
          "type": "address"
        },
        {
          "internalType": "contract IBaseAdapter",
          "name": "victim",
          "type": "address"
        },
        {
          "internalType": "uint256",
          "name": "penalizationCoefficient",
          "type": "uint256"
        },
        {
          "internalType": "uint256",
          "name": "auctionEndTimestamp",
          "type": "uint256"
        },
        {
          "internalType": "uint256",
          "name": "liquidityMigrationTimestamp",
          "type": "uint256"
        },
        {
          "internalType": "uint256",
          "name": "lockTimestamp",
          "type": "uint256"
        },
        {
          "internalType": "uint256",
          "name": "snapshotLookupTimestamp",
          "type": "uint256"
        },
        {
          "internalType": "enum IBleethMeCore.VAPoolState",
          "name": "state",
          "type": "uint8"
        }
      ],
      "stateMutability": "view",
      "type": "function"
    },
    {
      "inputs": [
        {
          "internalType": "uint256",
          "name": "",
          "type": "uint256"
        }
      ],
      "name": "vaStreams",
      "outputs": [
        {
          "internalType": "bytes32",
          "name": "balancesMerkleRoot",
          "type": "bytes32"
        },
        {
          "internalType": "contract IBaseAdapter",
          "name": "liquidityOrigin",
          "type": "address"
        },
        {
          "internalType": "contract IBaseAdapter",
          "name": "liquidityDestination",
          "type": "address"
        },
        {
          "internalType": "uint256",
          "name": "totalRewards",
          "type": "uint256"
        },
        {
          "internalType": "uint256",
          "name": "totalLiquidityMigrated",
          "type": "uint256"
        }
      ],
      "stateMutability": "view",
      "type": "function"
    },
    {
      "inputs": [
        {
          "internalType": "uint256",
          "name": "vaPoolId",
          "type": "uint256"
        }
      ],
      "name": "withdrawFailedBet",
      "outputs": [],
      "stateMutability": "nonpayable",
      "type": "function"
    }
  ],
  "bytecode": "0x608060405234801561000f575f5ffd5b50604051614e28380380614e2883398181016040528101906100319190610259565b825f73ffffffffffffffffffffffffffffffffffffffff168173ffffffffffffffffffffffffffffffffffffffff16036100a2575f6040517f1e4fbdf700000000000000000000000000000000000000000000000000000000815260040161009991906102b8565b60405180910390fd5b6100b18161013a60201b60201c565b508160085f6101000a81548173ffffffffffffffffffffffffffffffffffffffff021916908373ffffffffffffffffffffffffffffffffffffffff1602179055508060095f6101000a81548173ffffffffffffffffffffffffffffffffffffffff021916908373ffffffffffffffffffffffffffffffffffffffff1602179055505050506102d1565b5f5f5f9054906101000a900473ffffffffffffffffffffffffffffffffffffffff169050815f5f6101000a81548173ffffffffffffffffffffffffffffffffffffffff021916908373ffffffffffffffffffffffffffffffffffffffff1602179055508173ffffffffffffffffffffffffffffffffffffffff168173ffffffffffffffffffffffffffffffffffffffff167f8be0079c531659141344cd1fd0a4f28419497f9722a3daafe3b4186f6b6457e060405160405180910390a35050565b5f5ffd5b5f73ffffffffffffffffffffffffffffffffffffffff82169050919050565b5f610228826101ff565b9050919050565b6102388161021e565b8114610242575f5ffd5b50565b5f815190506102538161022f565b92915050565b5f5f5f606084860312156102705761026f6101fb565b5b5f61027d86828701610245565b935050602061028e86828701610245565b925050604061029f86828701610245565b9150509250925092565b6102b28161021e565b82525050565b5f6020820190506102cb5f8301846102a9565b92915050565b614b4a806102de5f395ff3fe608060405260043610610165575f3560e01c8063715018a6116100d0578063caf2297511610089578063eba0f21811610063578063eba0f21814610532578063f2fde38b1461056f578063f98d06f014610597578063faeb655c146105c157610165565b8063caf229751461048c578063d8f67495146104cc578063e0950ddf146104f657610165565b8063715018a6146103a25780638da5cb5b146103b857806392a71fdc146103e2578063a2e36c401461041e578063adf62bac14610446578063b6bd2caf1461047057610165565b80634f63879a116101225780634f63879a146102975780634fdb56c7146102da57806352a5f1f81461030257806358ec6a691461032a5780636c1c3cdc146103525780636d986db01461037a57610165565b80630962ef7914610169578063202d293f146101915780632bc6071a146101cd5780633bf466a4146101f557806347ce07cc146102315780634a02a1a91461025b575b5f5ffd5b348015610174575f5ffd5b5061018f600480360381019061018a919061338c565b6105e9565b005b34801561019c575f5ffd5b506101b760048036038101906101b291906134be565b610b10565b6040516101c491906135cf565b60405180910390f35b3480156101d8575f5ffd5b506101f360048036038101906101ee919061338c565b610f3f565b005b348015610200575f5ffd5b5061021b600480360381019061021691906135e8565b611004565b60405161022891906135cf565b60405180910390f35b34801561023c575f5ffd5b50610245611020565b604051610252919061366e565b60405180910390f35b348015610266575f5ffd5b50610281600480360381019061027c91906136c4565b611045565b60405161028e91906136fe565b60405180910390f35b3480156102a2575f5ffd5b506102bd60048036038101906102b8919061338c565b61105a565b6040516102d19897969594939291906137aa565b60405180910390f35b3480156102e5575f5ffd5b5061030060048036038101906102fb9190613850565b6110e8565b005b34801561030d575f5ffd5b50610328600480360381019061032391906138b8565b611148565b005b348015610335575f5ffd5b50610350600480360381019061034b9190613908565b611240565b005b34801561035d575f5ffd5b506103786004803603810190610373919061338c565b6112a7565b005b348015610385575f5ffd5b506103a0600480360381019061039b9190613969565b61167f565b005b3480156103ad575f5ffd5b506103b6611691565b005b3480156103c3575f5ffd5b506103cc6116a4565b6040516103d991906139dc565b60405180910390f35b3480156103ed575f5ffd5b5061040860048036038101906104039190613a61565b6116cb565b60405161041591906136fe565b60405180910390f35b348015610429575f5ffd5b50610444600480360381019061043f9190613bd7565b61177e565b005b348015610451575f5ffd5b5061045a611979565b60405161046791906136fe565b60405180910390f35b61048a60048036038101906104859190613cac565b61197f565b005b348015610497575f5ffd5b506104b260048036038101906104ad919061338c565b611db2565b6040516104c3959493929190613d09565b60405180910390f35b3480156104d7575f5ffd5b506104e0611e22565b6040516104ed9190613e11565b60405180910390f35b348015610501575f5ffd5b5061051c60048036038101906105179190613e31565b611e33565b6040516105299190613f37565b60405180910390f35b34801561053d575f5ffd5b506105586004803603810190610553919061338c565b611f3f565b604051610566929190613f50565b60405180910390f35b34801561057a575f5ffd5b5061059560048036038101906105909190613f77565b611f46565b005b3480156105a2575f5ffd5b506105ab611fca565b6040516105b89190613fc2565b60405180910390f35b3480156105cc575f5ffd5b506105e760048036038101906105e29190613bd7565b611fef565b005b6004808111156105fc576105fb613737565b5b60015f8381526020019081526020015f20600c015f9054906101000a900460ff16600481111561062f5761062e613737565b5b14610638575f5ffd5b5f610641611e22565b90505f815190505f60025f8581526020019081526020015f206004015490505f5f90505b82811015610ab25760015f8681526020019081526020015f206002015f85838151811061069557610694613fdb565b5b602002602001015173ffffffffffffffffffffffffffffffffffffffff1673ffffffffffffffffffffffffffffffffffffffff1681526020019081526020015f205f9054906101000a900460ff1615610aa5575f60015f8781526020019081526020015f206001015f9054906101000a900473ffffffffffffffffffffffffffffffffffffffff1673ffffffffffffffffffffffffffffffffffffffff1660025f8881526020019081526020015f206001015f9054906101000a900473ffffffffffffffffffffffffffffffffffffffff1673ffffffffffffffffffffffffffffffffffffffff16036108935761271060015f8881526020019081526020015f206003015460015f8981526020019081526020015f20600a015f8886815181106107c2576107c1613fdb565b5b602002602001015173ffffffffffffffffffffffffffffffffffffffff1673ffffffffffffffffffffffffffffffffffffffff1681526020019081526020015f205461080e9190614035565b61081891906140a3565b60015f8881526020019081526020015f206009015f8785815181106108405761083f613fdb565b5b602002602001015173ffffffffffffffffffffffffffffffffffffffff1673ffffffffffffffffffffffffffffffffffffffff1681526020019081526020015f205461088c91906140d3565b90506109a0565b61271060015f8881526020019081526020015f206003015460015f8981526020019081526020015f206009015f8886815181106108d3576108d2613fdb565b5b602002602001015173ffffffffffffffffffffffffffffffffffffffff1673ffffffffffffffffffffffffffffffffffffffff1681526020019081526020015f205461091f9190614035565b61092991906140a3565b60015f8881526020019081526020015f20600a015f87858151811061095157610950613fdb565b5b602002602001015173ffffffffffffffffffffffffffffffffffffffff1673ffffffffffffffffffffffffffffffffffffffff1681526020019081526020015f205461099d91906140d3565b90505b5f838260025f8a81526020019081526020015f206005015f3373ffffffffffffffffffffffffffffffffffffffff1673ffffffffffffffffffffffffffffffffffffffff1681526020019081526020015f2060010154610a009190614035565b610a0a91906140a3565b9050858381518110610a1f57610a1e613fdb565b5b602002602001015173ffffffffffffffffffffffffffffffffffffffff1663a9059cbb33836040518363ffffffff1660e01b8152600401610a61929190614106565b6020604051808303815f875af1158015610a7d573d5f5f3e3d5ffd5b505050506040513d601f19601f82011682018060405250810190610aa19190614162565b5050505b8080600101915050610665565b505f60025f8681526020019081526020015f206005015f3373ffffffffffffffffffffffffffffffffffffffff1673ffffffffffffffffffffffffffffffffffffffff1681526020019081526020015f206001018190555050505050565b5f612710881115610b56576040517f08c379a0000000000000000000000000000000000000000000000000000000008152600401610b4d906141e7565b60405180910390fd5b8b60015f60075f8154610b6890614205565b91905081905581526020019081526020015f205f015f6101000a81548173ffffffffffffffffffffffffffffffffffffffff021916908373ffffffffffffffffffffffffffffffffffffffff1602179055508a60015f60075481526020019081526020015f206001015f6101000a81548173ffffffffffffffffffffffffffffffffffffffff021916908373ffffffffffffffffffffffffffffffffffffffff1602179055508760015f60075481526020019081526020015f20600301819055508642610c3591906140d3565b60015f60075481526020019081526020015f2060040181905550858742610c5c91906140d3565b610c6691906140d3565b60015f60075481526020019081526020015f206005018190555084868842610c8e91906140d3565b610c9891906140d3565b610ca291906140d3565b60015f60075481526020019081526020015f20600601819055508360015f60075481526020019081526020015f20600701819055506001805f60075481526020019081526020015f20600c015f6101000a81548160ff02191690836004811115610d0f57610d0e613737565b5b02179055505f8a8a905090505f5f90505b81811015610e39575f5f1b610d668d8d84818110610d4157610d40613fdb565b5b9050602002016020810190610d5691906135e8565b600361214e90919063ffffffff16565b03610d9d576040517f13bf15d300000000000000000000000000000000000000000000000000000000815260040160405180910390fd5b6001805f60075481526020019081526020015f206002015f8e8e85818110610dc857610dc7613fdb565b5b9050602002016020810190610ddd91906135e8565b73ffffffffffffffffffffffffffffffffffffffff1673ffffffffffffffffffffffffffffffffffffffff1681526020019081526020015f205f6101000a81548160ff0219169083151502179055508080600101915050610d20565b505f831015610e74576040517f06f075a400000000000000000000000000000000000000000000000000000000815260040160405180910390fd5b5f5f1b610e8b85600361214e90919063ffffffff16565b03610ec2576040517f13bf15d300000000000000000000000000000000000000000000000000000000815260040160405180910390fd5b610ed06007545f868661217b565b8b73ffffffffffffffffffffffffffffffffffffffff168d73ffffffffffffffffffffffffffffffffffffffff166007545f1b7ff74d89d0a53b6902cca5170f8dfd91e41f0ebdbb768b2749d3b17a1ed1372f0260405160405180910390a4509b9a5050505050505050505050565b610f47612698565b60016004811115610f5b57610f5a613737565b5b60015f8381526020019081526020015f20600c015f9054906101000a900460ff166004811115610f8e57610f8d613737565b5b14610fc5576040517f3cae8da900000000000000000000000000000000000000000000000000000000815260040160405180910390fd5b600260015f8381526020019081526020015f20600c015f6101000a81548160ff02191690836004811115610ffc57610ffb613737565b5b021790555050565b5f61101982600361214e90919063ffffffff16565b9050919050565b60085f9054906101000a900473ffffffffffffffffffffffffffffffffffffffff1681565b6006602052805f5260405f205f915090505481565b6001602052805f5260405f205f91509050805f015f9054906101000a900473ffffffffffffffffffffffffffffffffffffffff1690806001015f9054906101000a900473ffffffffffffffffffffffffffffffffffffffff169080600301549080600401549080600501549080600601549080600701549080600c015f9054906101000a900460ff16905088565b6110f0612698565b8060025f8481526020019081526020015f205f0181905550600360015f8481526020019081526020015f20600c015f6101000a81548160ff0219169083600481111561113f5761113e613737565b5b02179055505050565b5f61115161271f565b90505f73ffffffffffffffffffffffffffffffffffffffff168173ffffffffffffffffffffffffffffffffffffffff16036111c1576040517f08c379a00000000000000000000000000000000000000000000000000000000081526004016111b890614296565b60405180910390fd5b8073ffffffffffffffffffffffffffffffffffffffff163373ffffffffffffffffffffffffffffffffffffffff161461122f576040517f08c379a000000000000000000000000000000000000000000000000000000000815260040161122690614324565b60405180910390fd5b61123a848484612747565b50505050565b611248612698565b61125e82826003612a4b9092919063ffffffff16565b50808273ffffffffffffffffffffffffffffffffffffffff167fb0c82c9fd889e2a03c3c513a8708dd3535578c770d917067e79574ffaf7e997360405160405180910390a35050565b5f60015f8381526020019081526020015f206008015f3373ffffffffffffffffffffffffffffffffffffffff1673ffffffffffffffffffffffffffffffffffffffff1681526020019081526020015f205f015f9054906101000a900460ff16905060015f8381526020019081526020015f206001015f9054906101000a900473ffffffffffffffffffffffffffffffffffffffff1673ffffffffffffffffffffffffffffffffffffffff1660025f8481526020019081526020015f206001015f9054906101000a900473ffffffffffffffffffffffffffffffffffffffff1673ffffffffffffffffffffffffffffffffffffffff161480156113cc57506001808111156113b7576113b6613737565b5b8160018111156113ca576113c9613737565b5b145b80611496575060015f8381526020019081526020015f205f015f9054906101000a900473ffffffffffffffffffffffffffffffffffffffff1673ffffffffffffffffffffffffffffffffffffffff1660025f8481526020019081526020015f206001015f9054906101000a900473ffffffffffffffffffffffffffffffffffffffff1673ffffffffffffffffffffffffffffffffffffffff1614801561149557505f60018111156114805761147f613737565b5b81600181111561149357611492613737565b5b145b5b156116775760015f8381526020019081526020015f206008015f3373ffffffffffffffffffffffffffffffffffffffff1673ffffffffffffffffffffffffffffffffffffffff1681526020019081526020015f205f0160019054906101000a900473ffffffffffffffffffffffffffffffffffffffff1673ffffffffffffffffffffffffffffffffffffffff1663a9059cbb3360015f8681526020019081526020015f206008015f3373ffffffffffffffffffffffffffffffffffffffff1673ffffffffffffffffffffffffffffffffffffffff1681526020019081526020015f20600101546040518363ffffffff1660e01b8152600401611599929190614106565b6020604051808303815f875af11580156115b5573d5f5f3e3d5ffd5b505050506040513d601f19601f820116820180604052508101906115d99190614162565b5060015f8381526020019081526020015f206008015f3373ffffffffffffffffffffffffffffffffffffffff1673ffffffffffffffffffffffffffffffffffffffff1681526020019081526020015f205f5f82015f6101000a81549060ff02191690555f820160016101000a81549073ffffffffffffffffffffffffffffffffffffffff0219169055600182015f9055600282015f9055505061167b565b5f5ffd5b5050565b61168b8484848461217b565b50505050565b611699612698565b6116a25f612a7a565b565b5f5f5f9054906101000a900473ffffffffffffffffffffffffffffffffffffffff16905090565b5f7fffffffffffffffffffffffffffffffffffffffffffffffffffffffffffffffee8260030b1215611749575f827fffffffffffffffffffffffffffffffffffffffffffffffffffffffffffffffee6117249190614342565b600a61173091906144db565b9050808460070b61174191906140a3565b915050611778565b5f8260126117579190614525565b600a61176391906144db565b9050808460070b6117749190614035565b9150505b92915050565b8160025f8681526020019081526020015f206005015f3373ffffffffffffffffffffffffffffffffffffffff1673ffffffffffffffffffffffffffffffffffffffff1681526020019081526020015f2060010154116117db575f5ffd5b60025f8581526020019081526020015f206002015f9054906101000a900473ffffffffffffffffffffffffffffffffffffffff1673ffffffffffffffffffffffffffffffffffffffff1663b118194d848484336040518563ffffffff1660e01b815260040161184d94939291906145e0565b5f604051808303815f87803b158015611864575f5ffd5b505af1158015611876573d5f5f3e3d5ffd5b505050508160025f8681526020019081526020015f206004015f82825461189d91906140d3565b925050819055508160025f8681526020019081526020015f206005015f3373ffffffffffffffffffffffffffffffffffffffff1673ffffffffffffffffffffffffffffffffffffffff1681526020019081526020015f205f015f828254611904919061462a565b925050819055508160025f8681526020019081526020015f206005015f3373ffffffffffffffffffffffffffffffffffffffff1673ffffffffffffffffffffffffffffffffffffffff1681526020019081526020015f206001015f82825461196c91906140d3565b9250508190555050505050565b60075481565b6001600481111561199357611992613737565b5b60015f8581526020019081526020015f20600c015f9054906101000a900460ff1660048111156119c6576119c5613737565b5b146119fd576040517f3cae8da900000000000000000000000000000000000000000000000000000000815260040160405180910390fd5b60015f8481526020019081526020015f2060040154421015611a54576040517f08c379a0000000000000000000000000000000000000000000000000000000008152600401611a4b906146a7565b60405180910390fd5b5f60095f9054906101000a900473ffffffffffffffffffffffffffffffffffffffff1673ffffffffffffffffffffffffffffffffffffffff1663d47eed4584846040518363ffffffff1660e01b8152600401611ab192919061481d565b602060405180830381865afa158015611acc573d5f5f3e3d5ffd5b505050506040513d601f19601f82011682018060405250810190611af09190614853565b905060095f9054906101000a900473ffffffffffffffffffffffffffffffffffffffff1673ffffffffffffffffffffffffffffffffffffffff1663ef9e5e288285856040518463ffffffff1660e01b8152600401611b4f92919061481d565b5f604051808303818588803b158015611b66575f5ffd5b505af1158015611b78573d5f5f3e3d5ffd5b50505050505f60015f8681526020019081526020015f20600b018054905014611d53575f60085f9054906101000a900473ffffffffffffffffffffffffffffffffffffffff1673ffffffffffffffffffffffffffffffffffffffff16638204b67a6040518163ffffffff1660e01b8152600401602060405180830381865afa158015611c06573d5f5f3e3d5ffd5b505050506040513d601f19601f82011682018060405250810190611c2a91906148c3565b9050806fffffffffffffffffffffffffffffffff16341015611c81576040517f08c379a0000000000000000000000000000000000000000000000000000000008152600401611c7890614938565b60405180910390fd5b8460065f60085f9054906101000a900473ffffffffffffffffffffffffffffffffffffffff1673ffffffffffffffffffffffffffffffffffffffff16637b43155d856fffffffffffffffffffffffffffffffff166040518263ffffffff1660e01b815260040160206040518083038185885af1158015611d03573d5f5f3e3d5ffd5b50505050506040513d601f19601f82011682018060405250810190611d28919061496a565b67ffffffffffffffff1667ffffffffffffffff1681526020019081526020015f208190555050611dac565b5f5f611d5e86612b3b565b91509150611d6d868383612e67565b600260015f8881526020019081526020015f20600c015f6101000a81548160ff02191690836004811115611da457611da3613737565b5b021790555050505b50505050565b6002602052805f5260405f205f91509050805f015490806001015f9054906101000a900473ffffffffffffffffffffffffffffffffffffffff1690806002015f9054906101000a900473ffffffffffffffffffffffffffffffffffffffff16908060030154908060040154905085565b6060611e2e60036130c8565b905090565b611e3b6132fc565b60015f8481526020019081526020015f206008015f8373ffffffffffffffffffffffffffffffffffffffff1673ffffffffffffffffffffffffffffffffffffffff1681526020019081526020015f206040518060800160405290815f82015f9054906101000a900460ff166001811115611eb857611eb7613737565b5b6001811115611eca57611ec9613737565b5b81526020015f820160019054906101000a900473ffffffffffffffffffffffffffffffffffffffff1673ffffffffffffffffffffffffffffffffffffffff1673ffffffffffffffffffffffffffffffffffffffff16815260200160018201548152602001600282015481525050905092915050565b5f5f915091565b611f4e612698565b5f73ffffffffffffffffffffffffffffffffffffffff168173ffffffffffffffffffffffffffffffffffffffff1603611fbe575f6040517f1e4fbdf7000000000000000000000000000000000000000000000000000000008152600401611fb591906139dc565b60405180910390fd5b611fc781612a7a565b50565b60095f9054906101000a900473ffffffffffffffffffffffffffffffffffffffff1681565b5f5f1b60025f8681526020019081526020015f205f01540361200f575f5ffd5b60025f8581526020019081526020015f206001015f9054906101000a900473ffffffffffffffffffffffffffffffffffffffff1673ffffffffffffffffffffffffffffffffffffffff166350ca245084848460025f8a81526020019081526020015f206002015f9054906101000a900473ffffffffffffffffffffffffffffffffffffffff166040518563ffffffff1660e01b81526004016120b494939291906145e0565b5f604051808303815f87803b1580156120cb575f5ffd5b505af11580156120dd573d5f5f3e3d5ffd5b505050508160025f8681526020019081526020015f206005015f3373ffffffffffffffffffffffffffffffffffffffff1673ffffffffffffffffffffffffffffffffffffffff1681526020019081526020015f205f015f82825461214191906140d3565b9250508190555050505050565b5f612173835f018373ffffffffffffffffffffffffffffffffffffffff165f1b6130e7565b905092915050565b6001600481111561218f5761218e613737565b5b60015f8681526020019081526020015f20600c015f9054906101000a900460ff1660048111156121c2576121c1613737565b5b146121f9576040517f3cae8da900000000000000000000000000000000000000000000000000000000815260040160405180910390fd5b60015f8581526020019081526020015f206002015f8373ffffffffffffffffffffffffffffffffffffffff1673ffffffffffffffffffffffffffffffffffffffff1681526020019081526020015f205f9054906101000a900460ff1661228b576040517f13bf15d300000000000000000000000000000000000000000000000000000000815260040160405180910390fd5b5f60015f8681526020019081526020015f206008015f3373ffffffffffffffffffffffffffffffffffffffff1673ffffffffffffffffffffffffffffffffffffffff1681526020019081526020015f206001015414612316576040517f62b79b2c00000000000000000000000000000000000000000000000000000000815260040160405180910390fd5b604051806080016040528084600181111561233457612333613737565b5b81526020018373ffffffffffffffffffffffffffffffffffffffff1681526020018281526020014281525060015f8681526020019081526020015f206008015f3373ffffffffffffffffffffffffffffffffffffffff1673ffffffffffffffffffffffffffffffffffffffff1681526020019081526020015f205f820151815f015f6101000a81548160ff021916908360018111156123d6576123d5613737565b5b02179055506020820151815f0160016101000a81548173ffffffffffffffffffffffffffffffffffffffff021916908373ffffffffffffffffffffffffffffffffffffffff16021790555060408201518160010155606082015181600201559050505f600181111561244b5761244a613737565b5b83600181111561245e5761245d613737565b5b036124cd578060015f8681526020019081526020015f206009015f8473ffffffffffffffffffffffffffffffffffffffff1673ffffffffffffffffffffffffffffffffffffffff1681526020019081526020015f205f8282546124c191906140d3565b92505081905550612533565b8060015f8681526020019081526020015f20600a015f8473ffffffffffffffffffffffffffffffffffffffff1673ffffffffffffffffffffffffffffffffffffffff1681526020019081526020015f205f82825461252b91906140d3565b925050819055505b60015f8581526020019081526020015f2060040154610e104261255691906140d3565b106125ce5760015f8581526020019081526020015f20600b0133908060018154018082558091505060019003905f5260205f20015f9091909190916101000a81548173ffffffffffffffffffffffffffffffffffffffff021916908373ffffffffffffffffffffffffffffffffffffffff1602179055505b8173ffffffffffffffffffffffffffffffffffffffff166323b872dd3330846040518463ffffffff1660e01b815260040161260b93929190614995565b6020604051808303815f875af1158015612627573d5f5f3e3d5ffd5b505050506040513d601f19601f8201168201806040525081019061264b9190614162565b503373ffffffffffffffffffffffffffffffffffffffff16845f1b7fa7885dc963acd7f4c4178c177b863f5a99c33f1321a4e2575070e6a7f5791adb60405160405180910390a350505050565b6126a0613163565b73ffffffffffffffffffffffffffffffffffffffff166126be6116a4565b73ffffffffffffffffffffffffffffffffffffffff161461271d576126e1613163565b6040517f118cdaa700000000000000000000000000000000000000000000000000000000815260040161271491906139dc565b60405180910390fd5b565b5f60085f9054906101000a900473ffffffffffffffffffffffffffffffffffffffff16905090565b5f60065f8567ffffffffffffffff1667ffffffffffffffff1681526020019081526020015f205490505f610e10835f1c61278191906149ca565b60015f8481526020019081526020015f20600401546127a0919061462a565b90506127aa6132fc565b5f60015f8581526020019081526020015f20600b018054905090505b5f81106129ea575f60015f8681526020019081526020015f206008015f60015f8881526020019081526020015f20600b01848154811061280957612808613fdb565b5b905f5260205f20015f9054906101000a900473ffffffffffffffffffffffffffffffffffffffff1673ffffffffffffffffffffffffffffffffffffffff1673ffffffffffffffffffffffffffffffffffffffff1681526020019081526020015f209050838160020154101561287e57506129ea565b5f600181111561289157612890613737565b5b815f015f9054906101000a900460ff1660018111156128b3576128b2613737565b5b0361294957806001015460015f8781526020019081526020015f206009015f835f0160019054906101000a900473ffffffffffffffffffffffffffffffffffffffff1673ffffffffffffffffffffffffffffffffffffffff1673ffffffffffffffffffffffffffffffffffffffff1681526020019081526020015f205f82825461293d919061462a565b925050819055506129d6565b806001015460015f8781526020019081526020015f20600a015f835f0160019054906101000a900473ffffffffffffffffffffffffffffffffffffffff1673ffffffffffffffffffffffffffffffffffffffff1673ffffffffffffffffffffffffffffffffffffffff1681526020019081526020015f205f8282546129ce919061462a565b925050819055505b5080806129e2906149fa565b9150506127c6565b505f5f6129f685612b3b565b91509150612a05858383612e67565b600260015f8781526020019081526020015f20600c015f6101000a81548160ff02191690836004811115612a3c57612a3b613737565b5b02179055505050505050505050565b5f612a71845f018473ffffffffffffffffffffffffffffffffffffffff165f1b8461316a565b90509392505050565b5f5f5f9054906101000a900473ffffffffffffffffffffffffffffffffffffffff169050815f5f6101000a81548173ffffffffffffffffffffffffffffffffffffffff021916908373ffffffffffffffffffffffffffffffffffffffff1602179055508173ffffffffffffffffffffffffffffffffffffffff168173ffffffffffffffffffffffffffffffffffffffff167f8be0079c531659141344cd1fd0a4f28419497f9722a3daafe3b4186f6b6457e060405160405180910390a35050565b5f5f5f612b46611e22565b90505f5f5f835190505f5f90505b81811015612dd05760015f8981526020019081526020015f206002015f868381518110612b8457612b83613fdb565b5b602002602001015173ffffffffffffffffffffffffffffffffffffffff1673ffffffffffffffffffffffffffffffffffffffff1681526020019081526020015f205f9054906101000a900460ff1615612dc3575f612c06868381518110612bee57612bed613fdb565b5b6020026020010151600361214e90919063ffffffff16565b90505f60095f9054906101000a900473ffffffffffffffffffffffffffffffffffffffff1673ffffffffffffffffffffffffffffffffffffffff1663a4ae35e083603c6040518363ffffffff1660e01b8152600401612c66929190614a21565b608060405180830381865afa158015612c81573d5f5f3e3d5ffd5b505050506040513d601f19601f82011682018060405250810190612ca59190614ae9565b90505f612cb9825f015183604001516116cb565b905060015f8c81526020019081526020015f206009015f898681518110612ce357612ce2613fdb565b5b602002602001015173ffffffffffffffffffffffffffffffffffffffff1673ffffffffffffffffffffffffffffffffffffffff1681526020019081526020015f205481612d309190614035565b87612d3b91906140d3565b965060015f8c81526020019081526020015f20600a015f898681518110612d6557612d64613fdb565b5b602002602001015173ffffffffffffffffffffffffffffffffffffffff1673ffffffffffffffffffffffffffffffffffffffff1681526020019081526020015f205481612db29190614035565b86612dbd91906140d3565b95505050505b8080600101915050612b54565b5081831115612e1f5761271060015f8981526020019081526020015f206003015483612dfc9190614035565b612e0691906140a3565b83612e1191906140d3565b5f9550955050505050612e62565b61271060015f8981526020019081526020015f206003015484612e429190614035565b612e4c91906140a3565b82612e5791906140d3565b600195509550505050505b915091565b5f6001811115612e7a57612e79613737565b5b816001811115612e8d57612e8c613737565b5b03612fa05760015f8481526020019081526020015f206001015f9054906101000a900473ffffffffffffffffffffffffffffffffffffffff1660025f8581526020019081526020015f206001015f6101000a81548173ffffffffffffffffffffffffffffffffffffffff021916908373ffffffffffffffffffffffffffffffffffffffff16021790555060015f8481526020019081526020015f205f015f9054906101000a900473ffffffffffffffffffffffffffffffffffffffff1660025f8581526020019081526020015f206002015f6101000a81548173ffffffffffffffffffffffffffffffffffffffff021916908373ffffffffffffffffffffffffffffffffffffffff1602179055506130aa565b60015f8481526020019081526020015f205f015f9054906101000a900473ffffffffffffffffffffffffffffffffffffffff1660025f8581526020019081526020015f206001015f6101000a81548173ffffffffffffffffffffffffffffffffffffffff021916908373ffffffffffffffffffffffffffffffffffffffff16021790555060015f8481526020019081526020015f206001015f9054906101000a900473ffffffffffffffffffffffffffffffffffffffff1660025f8581526020019081526020015f206002015f6101000a81548173ffffffffffffffffffffffffffffffffffffffff021916908373ffffffffffffffffffffffffffffffffffffffff1602179055505b8160025f8581526020019081526020015f2060030181905550505050565b60605f6130d6835f016131a1565b905060608190508092505050919050565b5f5f836002015f8481526020019081526020015f205490505f5f1b81148015613117575061311584846131b5565b155b1561315957826040517f02b5668600000000000000000000000000000000000000000000000000000000815260040161315091906135cf565b60405180910390fd5b8091505092915050565b5f33905090565b5f81846002015f8581526020019081526020015f208190555061319883855f016131d390919063ffffffff16565b90509392505050565b60606131ae825f016131e8565b9050919050565b5f6131cb82845f0161320790919063ffffffff16565b905092915050565b5f6131e0835f018361321c565b905092915050565b60605f6131f6835f01613283565b905060608190508092505050919050565b5f613214835f01836132dc565b905092915050565b5f61322783836132dc565b61327957825f0182908060018154018082558091505060019003905f5260205f20015f9091909190915055825f0180549050836001015f8481526020019081526020015f20819055506001905061327d565b5f90505b92915050565b6060815f018054806020026020016040519081016040528092919081815260200182805480156132d057602002820191905f5260205f20905b8154815260200190600101908083116132bc575b50505050509050919050565b5f5f836001015f8481526020019081526020015f20541415905092915050565b60405180608001604052805f600181111561331a57613319613737565b5b81526020015f73ffffffffffffffffffffffffffffffffffffffff1681526020015f81526020015f81525090565b5f604051905090565b5f5ffd5b5f5ffd5b5f819050919050565b61336b81613359565b8114613375575f5ffd5b50565b5f8135905061338681613362565b92915050565b5f602082840312156133a1576133a0613351565b5b5f6133ae84828501613378565b91505092915050565b5f73ffffffffffffffffffffffffffffffffffffffff82169050919050565b5f6133e0826133b7565b9050919050565b5f6133f1826133d6565b9050919050565b613401816133e7565b811461340b575f5ffd5b50565b5f8135905061341c816133f8565b92915050565b5f5ffd5b5f5ffd5b5f5ffd5b5f5f83601f84011261344357613442613422565b5b8235905067ffffffffffffffff8111156134605761345f613426565b5b60208301915083602082028301111561347c5761347b61342a565b5b9250929050565b5f61348d826133d6565b9050919050565b61349d81613483565b81146134a7575f5ffd5b50565b5f813590506134b881613494565b92915050565b5f5f5f5f5f5f5f5f5f5f5f6101408c8e0312156134de576134dd613351565b5b5f6134eb8e828f0161340e565b9b505060206134fc8e828f0161340e565b9a505060408c013567ffffffffffffffff81111561351d5761351c613355565b5b6135298e828f0161342e565b9950995050606061353c8e828f01613378565b975050608061354d8e828f01613378565b96505060a061355e8e828f01613378565b95505060c061356f8e828f01613378565b94505060e06135808e828f01613378565b9350506101006135928e828f016134aa565b9250506101206135a48e828f01613378565b9150509295989b509295989b9093969950565b5f819050919050565b6135c9816135b7565b82525050565b5f6020820190506135e25f8301846135c0565b92915050565b5f602082840312156135fd576135fc613351565b5b5f61360a848285016134aa565b91505092915050565b5f819050919050565b5f61363661363161362c846133b7565b613613565b6133b7565b9050919050565b5f6136478261361c565b9050919050565b5f6136588261363d565b9050919050565b6136688161364e565b82525050565b5f6020820190506136815f83018461365f565b92915050565b5f67ffffffffffffffff82169050919050565b6136a381613687565b81146136ad575f5ffd5b50565b5f813590506136be8161369a565b92915050565b5f602082840312156136d9576136d8613351565b5b5f6136e6848285016136b0565b91505092915050565b6136f881613359565b82525050565b5f6020820190506137115f8301846136ef565b92915050565b5f6137218261363d565b9050919050565b61373181613717565b82525050565b7f4e487b71000000000000000000000000000000000000000000000000000000005f52602160045260245ffd5b6005811061377557613774613737565b5b50565b5f81905061378582613764565b919050565b5f61379482613778565b9050919050565b6137a48161378a565b82525050565b5f610100820190506137be5f83018b613728565b6137cb602083018a613728565b6137d860408301896136ef565b6137e560608301886136ef565b6137f260808301876136ef565b6137ff60a08301866136ef565b61380c60c08301856136ef565b61381960e083018461379b565b9998505050505050505050565b61382f816135b7565b8114613839575f5ffd5b50565b5f8135905061384a81613826565b92915050565b5f5f6040838503121561386657613865613351565b5b5f61387385828601613378565b92505060206138848582860161383c565b9150509250929050565b613897816133d6565b81146138a1575f5ffd5b50565b5f813590506138b28161388e565b92915050565b5f5f5f606084860312156138cf576138ce613351565b5b5f6138dc868287016136b0565b93505060206138ed868287016138a4565b92505060406138fe8682870161383c565b9150509250925092565b5f5f6040838503121561391e5761391d613351565b5b5f61392b858286016134aa565b925050602061393c8582860161383c565b9150509250929050565b60028110613952575f5ffd5b50565b5f8135905061396381613946565b92915050565b5f5f5f5f6080858703121561398157613980613351565b5b5f61398e87828801613378565b945050602061399f87828801613955565b93505060406139b0878288016134aa565b92505060606139c187828801613378565b91505092959194509250565b6139d6816133d6565b82525050565b5f6020820190506139ef5f8301846139cd565b92915050565b5f8160070b9050919050565b613a0a816139f5565b8114613a14575f5ffd5b50565b5f81359050613a2581613a01565b92915050565b5f8160030b9050919050565b613a4081613a2b565b8114613a4a575f5ffd5b50565b5f81359050613a5b81613a37565b92915050565b5f5f60408385031215613a7757613a76613351565b5b5f613a8485828601613a17565b9250506020613a9585828601613a4d565b9150509250929050565b5f5ffd5b5f601f19601f8301169050919050565b7f4e487b71000000000000000000000000000000000000000000000000000000005f52604160045260245ffd5b613ae982613aa3565b810181811067ffffffffffffffff82111715613b0857613b07613ab3565b5b80604052505050565b5f613b1a613348565b9050613b268282613ae0565b919050565b5f67ffffffffffffffff821115613b4557613b44613ab3565b5b613b4e82613aa3565b9050602081019050919050565b828183375f83830152505050565b5f613b7b613b7684613b2b565b613b11565b905082815260208101848484011115613b9757613b96613a9f565b5b613ba2848285613b5b565b509392505050565b5f82601f830112613bbe57613bbd613422565b5b8135613bce848260208601613b69565b91505092915050565b5f5f5f5f60808587031215613bef57613bee613351565b5b5f613bfc87828801613378565b9450506020613c0d878288016138a4565b9350506040613c1e87828801613378565b925050606085013567ffffffffffffffff811115613c3f57613c3e613355565b5b613c4b87828801613baa565b91505092959194509250565b5f5f83601f840112613c6c57613c6b613422565b5b8235905067ffffffffffffffff811115613c8957613c88613426565b5b602083019150836020820283011115613ca557613ca461342a565b5b9250929050565b5f5f5f60408486031215613cc357613cc2613351565b5b5f613cd086828701613378565b935050602084013567ffffffffffffffff811115613cf157613cf0613355565b5b613cfd86828701613c57565b92509250509250925092565b5f60a082019050613d1c5f8301886135c0565b613d296020830187613728565b613d366040830186613728565b613d4360608301856136ef565b613d5060808301846136ef565b9695505050505050565b5f81519050919050565b5f82825260208201905092915050565b5f819050602082019050919050565b613d8c816133d6565b82525050565b5f613d9d8383613d83565b60208301905092915050565b5f602082019050919050565b5f613dbf82613d5a565b613dc98185613d64565b9350613dd483613d74565b805f5b83811015613e04578151613deb8882613d92565b9750613df683613da9565b925050600181019050613dd7565b5085935050505092915050565b5f6020820190508181035f830152613e298184613db5565b905092915050565b5f5f60408385031215613e4757613e46613351565b5b5f613e5485828601613378565b9250506020613e65858286016138a4565b9150509250929050565b60028110613e8057613e7f613737565b5b50565b5f819050613e9082613e6f565b919050565b5f613e9f82613e83565b9050919050565b613eaf81613e95565b82525050565b5f613ebf8261363d565b9050919050565b613ecf81613eb5565b82525050565b613ede81613359565b82525050565b608082015f820151613ef85f850182613ea6565b506020820151613f0b6020850182613ec6565b506040820151613f1e6040850182613ed5565b506060820151613f316060850182613ed5565b50505050565b5f608082019050613f4a5f830184613ee4565b92915050565b5f604082019050613f635f8301856136ef565b613f7060208301846136ef565b9392505050565b5f60208284031215613f8c57613f8b613351565b5b5f613f99848285016138a4565b91505092915050565b5f613fac8261363d565b9050919050565b613fbc81613fa2565b82525050565b5f602082019050613fd55f830184613fb3565b92915050565b7f4e487b71000000000000000000000000000000000000000000000000000000005f52603260045260245ffd5b7f4e487b71000000000000000000000000000000000000000000000000000000005f52601160045260245ffd5b5f61403f82613359565b915061404a83613359565b925082820261405881613359565b9150828204841483151761406f5761406e614008565b5b5092915050565b7f4e487b71000000000000000000000000000000000000000000000000000000005f52601260045260245ffd5b5f6140ad82613359565b91506140b883613359565b9250826140c8576140c7614076565b5b828204905092915050565b5f6140dd82613359565b91506140e883613359565b9250828201905080821115614100576140ff614008565b5b92915050565b5f6040820190506141195f8301856139cd565b61412660208301846136ef565b9392505050565b5f8115159050919050565b6141418161412d565b811461414b575f5ffd5b50565b5f8151905061415c81614138565b92915050565b5f6020828403121561417757614176613351565b5b5f6141848482850161414e565b91505092915050565b5f82825260208201905092915050565b7f496e76616c69642070656e616c697a6174696f6e0000000000000000000000005f82015250565b5f6141d160148361418d565b91506141dc8261419d565b602082019050919050565b5f6020820190508181035f8301526141fe816141c5565b9050919050565b5f61420f82613359565b91507fffffffffffffffffffffffffffffffffffffffffffffffffffffffffffffffff820361424157614240614008565b5b600182019050919050565b7f456e74726f70792061646472657373206e6f74207365740000000000000000005f82015250565b5f61428060178361418d565b915061428b8261424c565b602082019050919050565b5f6020820190508181035f8301526142ad81614274565b9050919050565b7f4f6e6c7920456e74726f70792063616e2063616c6c20746869732066756e63745f8201527f696f6e0000000000000000000000000000000000000000000000000000000000602082015250565b5f61430e60238361418d565b9150614319826142b4565b604082019050919050565b5f6020820190508181035f83015261433b81614302565b9050919050565b5f61434c82613a2b565b915061435783613a2b565b92508282039050637fffffff81137fffffffffffffffffffffffffffffffffffffffffffffffffffffffff800000008212171561439757614396614008565b5b92915050565b5f8160011c9050919050565b5f5f8291508390505b60018511156143f2578086048111156143ce576143cd614008565b5b60018516156143dd5780820291505b80810290506143eb8561439d565b94506143b2565b94509492505050565b5f8261440a57600190506144c5565b81614417575f90506144c5565b816001811461442d576002811461443757614466565b60019150506144c5565b60ff84111561444957614448614008565b5b8360020a9150848211156144605761445f614008565b5b506144c5565b5060208310610133831016604e8410600b841016171561449b5782820a90508381111561449657614495614008565b5b6144c5565b6144a884848460016143a9565b925090508184048111156144bf576144be614008565b5b81810290505b9392505050565b5f63ffffffff82169050919050565b5f6144e582613359565b91506144f0836144cc565b925061451d7fffffffffffffffffffffffffffffffffffffffffffffffffffffffffffffffff84846143fb565b905092915050565b5f61452f82613a2b565b915061453a83613a2b565b925082820190507fffffffffffffffffffffffffffffffffffffffffffffffffffffffff800000008112637fffffff8213171561457a57614579614008565b5b92915050565b5f81519050919050565b5f82825260208201905092915050565b8281835e5f83830152505050565b5f6145b282614580565b6145bc818561458a565b93506145cc81856020860161459a565b6145d581613aa3565b840191505092915050565b5f6080820190506145f35f8301876139cd565b61460060208301866136ef565b818103604083015261461281856145a8565b905061462160608301846139cd565b95945050505050565b5f61463482613359565b915061463f83613359565b925082820390508181111561465757614656614008565b5b92915050565b7f6e6f742066696e616c697a6564000000000000000000000000000000000000005f82015250565b5f614691600d8361418d565b915061469c8261465d565b602082019050919050565b5f6020820190508181035f8301526146be81614685565b9050919050565b5f82825260208201905092915050565b5f819050919050565b5f82825260208201905092915050565b5f6146f983856146de565b9350614706838584613b5b565b61470f83613aa3565b840190509392505050565b5f6147268484846146ee565b90509392505050565b5f5ffd5b5f5ffd5b5f5ffd5b5f5f8335600160200384360303811261475757614756614737565b5b83810192508235915060208301925067ffffffffffffffff82111561477f5761477e61472f565b5b60018202360383131561479557614794614733565b5b509250929050565b5f602082019050919050565b5f6147b483856146c5565b9350836020840285016147c6846146d5565b805f5b8781101561480b5784840389526147e0828461473b565b6147eb86828461471a565b95506147f68461479d565b935060208b019a5050506001810190506147c9565b50829750879450505050509392505050565b5f6020820190508181035f8301526148368184866147a9565b90509392505050565b5f8151905061484d81613362565b92915050565b5f6020828403121561486857614867613351565b5b5f6148758482850161483f565b91505092915050565b5f6fffffffffffffffffffffffffffffffff82169050919050565b6148a28161487e565b81146148ac575f5ffd5b50565b5f815190506148bd81614899565b92915050565b5f602082840312156148d8576148d7613351565b5b5f6148e5848285016148af565b91505092915050565b7f6e6f7420656e6f756768206665657300000000000000000000000000000000005f82015250565b5f614922600f8361418d565b915061492d826148ee565b602082019050919050565b5f6020820190508181035f83015261494f81614916565b9050919050565b5f815190506149648161369a565b92915050565b5f6020828403121561497f5761497e613351565b5b5f61498c84828501614956565b91505092915050565b5f6060820190506149a85f8301866139cd565b6149b560208301856139cd565b6149c260408301846136ef565b949350505050565b5f6149d482613359565b91506149df83613359565b9250826149ef576149ee614076565b5b828206905092915050565b5f614a0482613359565b91505f8203614a1657614a15614008565b5b600182039050919050565b5f604082019050614a345f8301856135c0565b614a4160208301846136ef565b9392505050565b5f5ffd5b5f81519050614a5a81613a01565b92915050565b5f81519050614a6e81613a37565b92915050565b5f60808284031215614a8957614a88614a48565b5b614a936080613b11565b90505f614aa284828501614a4c565b5f830152506020614ab584828501614956565b6020830152506040614ac984828501614a60565b6040830152506060614add8482850161483f565b60608301525092915050565b5f60808284031215614afe57614afd613351565b5b5f614b0b84828501614a74565b9150509291505056fea2646970667358221220ad1233a979d5f76fbd919122c9bfe56ece462b3adea70d684552413652aaca9064736f6c634300081c0033",
  "linkReferences": {},
  "deployedLinkReferences": {},
  "immutableReferences": {},
  "inputSourceName": "project/contracts/BleethMeCore.sol",
  "buildInfoId": "solc-0_8_28-2021f620ba7d854720bcc551b664c69e87bc8cba"
}